{
  "_format": "hh-sol-artifact-1",
  "contractName": "MockTimelock",
  "sourceName": "contracts/mocks/MockTimelock.sol",
  "abi": [
    {
      "inputs": [],
      "stateMutability": "nonpayable",
      "type": "constructor"
    },
    {
      "anonymous": false,
      "inputs": [
        {
          "indexed": true,
          "internalType": "bytes32",
          "name": "txHash",
          "type": "bytes32"
        },
        {
          "indexed": true,
          "internalType": "address",
          "name": "target",
          "type": "address"
        },
        {
          "indexed": false,
          "internalType": "uint256",
          "name": "value",
          "type": "uint256"
        },
        {
          "indexed": false,
          "internalType": "string",
          "name": "signature",
          "type": "string"
        },
        {
          "indexed": false,
          "internalType": "bytes",
          "name": "data",
          "type": "bytes"
        },
        {
          "indexed": false,
          "internalType": "uint256",
          "name": "eta",
          "type": "uint256"
        }
      ],
      "name": "CancelTransaction",
      "type": "event"
    },
    {
      "anonymous": false,
      "inputs": [
        {
          "indexed": true,
          "internalType": "bytes32",
          "name": "txHash",
          "type": "bytes32"
        },
        {
          "indexed": true,
          "internalType": "address",
          "name": "target",
          "type": "address"
        },
        {
          "indexed": false,
          "internalType": "uint256",
          "name": "value",
          "type": "uint256"
        },
        {
          "indexed": false,
          "internalType": "string",
          "name": "signature",
          "type": "string"
        },
        {
          "indexed": false,
          "internalType": "bytes",
          "name": "data",
          "type": "bytes"
        },
        {
          "indexed": false,
          "internalType": "uint256",
          "name": "eta",
          "type": "uint256"
        }
      ],
      "name": "ExecuteTransaction",
      "type": "event"
    },
    {
      "anonymous": false,
      "inputs": [
        {
          "indexed": true,
          "internalType": "address",
          "name": "newAdmin",
          "type": "address"
        }
      ],
      "name": "NewAdmin",
      "type": "event"
    },
    {
      "anonymous": false,
      "inputs": [
        {
          "indexed": true,
          "internalType": "uint256",
          "name": "newDelay",
          "type": "uint256"
        }
      ],
      "name": "NewDelay",
      "type": "event"
    },
    {
      "anonymous": false,
      "inputs": [
        {
          "indexed": true,
          "internalType": "address",
          "name": "newPendingAdmin",
          "type": "address"
        }
      ],
      "name": "NewPendingAdmin",
      "type": "event"
    },
    {
      "anonymous": false,
      "inputs": [
        {
          "indexed": true,
          "internalType": "bytes32",
          "name": "txHash",
          "type": "bytes32"
        },
        {
          "indexed": true,
          "internalType": "address",
          "name": "target",
          "type": "address"
        },
        {
          "indexed": false,
          "internalType": "uint256",
          "name": "value",
          "type": "uint256"
        },
        {
          "indexed": false,
          "internalType": "string",
          "name": "signature",
          "type": "string"
        },
        {
          "indexed": false,
          "internalType": "bytes",
          "name": "data",
          "type": "bytes"
        },
        {
          "indexed": false,
          "internalType": "uint256",
          "name": "eta",
          "type": "uint256"
        }
      ],
      "name": "QueueTransaction",
      "type": "event"
    },
    {
      "inputs": [],
      "name": "GRACE_PERIOD",
      "outputs": [
        {
          "internalType": "uint256",
          "name": "",
          "type": "uint256"
        }
      ],
      "stateMutability": "view",
      "type": "function"
    },
    {
      "inputs": [],
      "name": "MAXIMUM_DELAY",
      "outputs": [
        {
          "internalType": "uint256",
          "name": "",
          "type": "uint256"
        }
      ],
      "stateMutability": "view",
      "type": "function"
    },
    {
      "inputs": [],
      "name": "MINIMUM_DELAY",
      "outputs": [
        {
          "internalType": "uint256",
          "name": "",
          "type": "uint256"
        }
      ],
      "stateMutability": "view",
      "type": "function"
    },
    {
      "inputs": [],
      "name": "acceptAdmin",
      "outputs": [],
      "stateMutability": "nonpayable",
      "type": "function"
    },
    {
      "inputs": [],
      "name": "admin",
      "outputs": [
        {
          "internalType": "address",
          "name": "",
          "type": "address"
        }
      ],
      "stateMutability": "view",
      "type": "function"
    },
    {
      "inputs": [
        {
          "internalType": "address",
          "name": "target",
          "type": "address"
        },
        {
          "internalType": "uint256",
          "name": "value",
          "type": "uint256"
        },
        {
          "internalType": "string",
          "name": "signature",
          "type": "string"
        },
        {
          "internalType": "bytes",
          "name": "data",
          "type": "bytes"
        },
        {
          "internalType": "uint256",
          "name": "eta",
          "type": "uint256"
        }
      ],
      "name": "cancelTransaction",
      "outputs": [],
      "stateMutability": "nonpayable",
      "type": "function"
    },
    {
      "inputs": [],
      "name": "delay",
      "outputs": [
        {
          "internalType": "uint256",
          "name": "",
          "type": "uint256"
        }
      ],
      "stateMutability": "view",
      "type": "function"
    },
    {
      "inputs": [
        {
          "internalType": "address",
          "name": "target",
          "type": "address"
        },
        {
          "internalType": "uint256",
          "name": "value",
          "type": "uint256"
        },
        {
          "internalType": "string",
          "name": "signature",
          "type": "string"
        },
        {
          "internalType": "bytes",
          "name": "data",
          "type": "bytes"
        },
        {
          "internalType": "uint256",
          "name": "eta",
          "type": "uint256"
        }
      ],
      "name": "executeTransaction",
      "outputs": [
        {
          "internalType": "bytes",
          "name": "",
          "type": "bytes"
        }
      ],
      "stateMutability": "nonpayable",
      "type": "function"
    },
    {
      "inputs": [
        {
          "internalType": "address",
          "name": "target",
          "type": "address"
        },
        {
          "internalType": "uint256",
          "name": "value",
          "type": "uint256"
        },
        {
          "internalType": "string",
          "name": "signature",
          "type": "string"
        },
        {
          "internalType": "bytes",
          "name": "data",
          "type": "bytes"
        }
      ],
      "name": "fastTrackExecution",
      "outputs": [
        {
          "internalType": "bytes",
          "name": "",
          "type": "bytes"
        }
      ],
      "stateMutability": "nonpayable",
      "type": "function"
    },
    {
      "inputs": [],
      "name": "pendingAdmin",
      "outputs": [
        {
          "internalType": "address",
          "name": "",
          "type": "address"
        }
      ],
      "stateMutability": "view",
      "type": "function"
    },
    {
      "inputs": [
        {
          "internalType": "address",
          "name": "target",
          "type": "address"
        },
        {
          "internalType": "uint256",
          "name": "value",
          "type": "uint256"
        },
        {
          "internalType": "string",
          "name": "signature",
          "type": "string"
        },
        {
          "internalType": "bytes",
          "name": "data",
          "type": "bytes"
        },
        {
          "internalType": "uint256",
          "name": "eta",
          "type": "uint256"
        }
      ],
      "name": "queueTransaction",
      "outputs": [
        {
          "internalType": "bytes32",
          "name": "",
          "type": "bytes32"
        }
      ],
      "stateMutability": "nonpayable",
      "type": "function"
    },
    {
      "inputs": [
        {
          "internalType": "bytes32",
          "name": "",
          "type": "bytes32"
        }
      ],
      "name": "queuedTransactions",
      "outputs": [
        {
          "internalType": "bool",
          "name": "",
          "type": "bool"
        }
      ],
      "stateMutability": "view",
      "type": "function"
    },
    {
      "inputs": [
        {
          "internalType": "uint256",
          "name": "delay_",
          "type": "uint256"
        }
      ],
      "name": "setDelay",
      "outputs": [],
      "stateMutability": "nonpayable",
      "type": "function"
    },
    {
      "inputs": [
        {
          "internalType": "address",
          "name": "pendingAdmin_",
          "type": "address"
        }
      ],
      "name": "setPendingAdmin",
      "outputs": [],
      "stateMutability": "nonpayable",
      "type": "function"
    },
    {
      "stateMutability": "payable",
      "type": "receive"
    }
  ],
  "bytecode": "0x6080806040523461002e57600080546001600160a01b03191633179055610e10600255610be690816100348239f35b600080fdfe60406080815260049081361015610020575b5050361561001e57600080fd5b005b600091823560e01c9081630825f38f146106b75781630e18b681146105f457816326782247146105cb5781633a66f901146104b15781634dd18bf51461043d578163591fcdfe146103aa5781636a42b8f81461038b5781637d645fab1461036d578163b1b43ae514610350578163b4ceebb614610210578163c1a287e2146101f2578163e177246e1461011e578163f2b06537146100ed575063f851a4400361001157346100e957816003193601126100e957905490516001600160a01b039091168152602090f35b5080fd5b90503461011a57602036600319011261011a578160209360ff923581526003855220541690519015158152f35b8280fd5b90503461011a57602036600319011261011a5780359161014860018060a01b038554163314610a91565b610e10831015806101e5575b15610186575050806002557f948b1f6a42ee138b7e34058ba85a37f716d55ff25ff05a763f15bed6a04c8d2c8280a280f35b906020608492519162461bcd60e51b8352820152603360248201527f54696d656c6f636b3a2044656c6179206d757374206265206265747765656e206044820152726d696e696d756d20616e64206d6178696d756d60681b6064820152fd5b5062278d00831115610154565b5050346100e957816003193601126100e95760209051621275008152f35b9050823461034d57608036600319011261034d5761022c610930565b67ffffffffffffffff6044358181116103495761024c903690860161099f565b9060643590811161034957906102678493923690870161099f565b9061027c60018060a01b038554163314610a91565b80519081610312575050905b60208251920190602435905af19061029e610b52565b91156102bf57506102bb9151918291602083526020830190610a6c565b0390f35b608490602084519162461bcd60e51b8352820152602760248201527f54696d656c6f636b3a204661737420747261636b20657865637574696f6e2072604482015266195d995c9d195960ca1b6064820152fd5b61034391602063ffffffff60e01b92012016610335885193849260208401610b2b565b03601f19810183528261094b565b90610288565b8380fd5b80fd5b5050346100e957816003193601126100e95760209051610e108152f35b5050346100e957816003193601126100e9576020905162278d008152f35b5050346100e957816003193601126100e9576020906002549051908152f35b5050346100e957610437907f2fffc091a501fd91bfbff27141450d3acb40fb8e6d8382b243ec7a812a3aaf876103df366109e6565b9060018060a099949695991b03946103fb868b54163314610a91565b8888516104148161033587878760208501978d89610ae9565b51902097888b526003602052808b2060ff19815416905551958695169885610b82565b0390a380f35b833461034d57602036600319011261034d57610457610930565b81546001600160a01b0391906104709083163314610a91565b16806bffffffffffffffffffffffff60a01b60015416176001557f69d78e38a01985fbb1462961809b4b2d65531bc93b2b94037f3334b82ca4a7568280a280f35b9050823461034d576104c2366109e6565b855493966001600160a01b0395949193916104e09087163314610a91565b60025442018042116105b857841061056957602089808a8a7f76e2796dc3a81d57b0e8504b647febcbeeb5f4af818e164f11eef8131a6a763f8b8b6105608c8c8c888a5161053a818f878787610335938501978d89610ae9565b5190209a888c809a5260038e5220600160ff198254161790558951958695169885610b82565b0390a351908152f35b60849060208a519162461bcd60e51b8352820152602360248201527f54696d656c6f636b3a20455441206d75737420626520696e207468652066757460448201526275726560e81b6064820152fd5b634e487b7160e01b885260118252602488fd5b5050346100e957816003193601126100e95760015490516001600160a01b039091168152602090f35b90503461011a578260031936011261011a57600154916001600160a01b03831633036106615750506bffffffffffffffffffffffff60a01b90338284541617835516600155337f71614071b88dee5e0b2ae578a9dd7b2ebbe9ae832ba419dc0242cd065a290b6c8280a280f35b906020608492519162461bcd60e51b8352820152602a60248201527f54696d656c6f636b3a2043616c6c206d75737420636f6d652066726f6d207065604482015269373234b733a0b236b4b760b11b6064820152fd5b9050823461034d576106c8366109e6565b85546001600160a01b03989592906106e3908a163314610a91565b855193602097888601866106fb8686868c8b87610ae9565b039661070f601f199889810183528261094b565b5190209586825260038a5260ff8983205416156108ef578442106108ac57621275008501808611610899574211610856578884839289845260038d5282842060ff1981541690558c865180156000146108225750505090505b8a8151910189885af19861077a610b52565b99156107ce57506102bb979899927fa560e3198060a2f10670c1ec5b403077ea6ae93ca8de1c32b451dc1a943cd6e794926107bc928951958695169885610b82565b0390a351928284938452830190610a6c565b875162461bcd60e51b8152908101899052602860248201527f54696d656c6f636b3a205472616e73616374696f6e20657865637574696f6e206044820152671c995d995c9d195960c21b6064820152608490fd5b87820120935193610851938592610845926001600160e01b031916908401610b2b565b0390810183528261094b565b610768565b885162461bcd60e51b8152808c018b9052601d60248201527f54696d656c6f636b3a205472616e73616374696f6e20657870697265640000006044820152606490fd5b634e487b7160e01b835260118c52602483fd5b885162461bcd60e51b8152808c018b9052601f60248201527f54696d656c6f636b3a205472616e73616374696f6e206e6f74207265616479006044820152606490fd5b60648b8b808c519262461bcd60e51b845283015260248201527f54696d656c6f636b3a205472616e73616374696f6e206e6f74207175657565646044820152fd5b600435906001600160a01b038216820361094657565b600080fd5b90601f8019910116810190811067ffffffffffffffff82111761096d57604052565b634e487b7160e01b600052604160045260246000fd5b67ffffffffffffffff811161096d57601f01601f191660200190565b81601f82011215610946578035906109b682610983565b926109c4604051948561094b565b8284526020838301011161094657816000926020809301838601378301015290565b9060a0600319830112610946576004356001600160a01b038116810361094657916024359167ffffffffffffffff6044358181116109465783610a2b9160040161099f565b9260643591821161094657610a429160040161099f565b9060843590565b60005b838110610a5c5750506000910152565b8181015183820152602001610a4c565b90602091610a8581518092818552858086019101610a49565b601f01601f1916010190565b15610a9857565b60405162461bcd60e51b815260206004820152602360248201527f54696d656c6f636b3a2043616c6c206d75737420636f6d652066726f6d20616460448201526236b4b760e91b6064820152608490fd5b95949390608093610b2693610b189260018060a01b03168952602089015260a0604089015260a0880190610a6c565b908682036060880152610a6c565b930152565b6004929163ffffffff60e01b168152610b4d8251809360208685019101610a49565b010190565b3d15610b7d573d90610b6382610983565b91610b71604051938461094b565b82523d6000602084013e565b606090565b949392610ba2606093610b26938852608060208901526080880190610a6c565b908682036040880152610a6c56fea26469706673582212209dfd20147cc0433f2cf8b3822d6135aa34165c8f0529257bc5fa9b507014a03564736f6c63430008160033",
  "linkReferences": {},
  "deployedLinkReferences": {}
}