{
  "_format": "hh-sol-artifact-1",
  "contractName": "ConsensusProofEngine",
  "sourceName": "contracts/hypermesh/ConsensusProofEngine.sol",
  "abi": [
    {
      "inputs": [
        {
          "internalType": "address",
          "name": "owner",
          "type": "address"
        }
      ],
      "stateMutability": "nonpayable",
      "type": "constructor"
    },
    {
      "inputs": [
        {
          "internalType": "address",
          "name": "owner",
          "type": "address"
        }
      ],
      "name": "OwnableInvalidOwner",
      "type": "error"
    },
    {
      "inputs": [
        {
          "internalType": "address",
          "name": "account",
          "type": "address"
        }
      ],
      "name": "OwnableUnauthorizedAccount",
      "type": "error"
    },
    {
      "inputs": [],
      "name": "ReentrancyGuardReentrantCall",
      "type": "error"
    },
    {
      "anonymous": false,
      "inputs": [
        {
          "indexed": true,
          "internalType": "bytes32",
          "name": "proofId",
          "type": "bytes32"
        },
        {
          "indexed": false,
          "internalType": "string",
          "name": "reason",
          "type": "string"
        }
      ],
      "name": "ConsensusFailed",
      "type": "event"
    },
    {
      "anonymous": false,
      "inputs": [
        {
          "indexed": true,
          "internalType": "bytes32",
          "name": "proofId",
          "type": "bytes32"
        },
        {
          "indexed": false,
          "internalType": "bytes32",
          "name": "transactionHash",
          "type": "bytes32"
        },
        {
          "indexed": false,
          "internalType": "address[]",
          "name": "validators",
          "type": "address[]"
        }
      ],
      "name": "ConsensusProofStarted",
      "type": "event"
    },
    {
      "anonymous": false,
      "inputs": [
        {
          "indexed": true,
          "internalType": "bytes32",
          "name": "proofId",
          "type": "bytes32"
        },
        {
          "indexed": false,
          "internalType": "uint256",
          "name": "consensusScore",
          "type": "uint256"
        },
        {
          "indexed": false,
          "internalType": "uint256",
          "name": "validationTime",
          "type": "uint256"
        }
      ],
      "name": "ConsensusReached",
      "type": "event"
    },
    {
      "anonymous": false,
      "inputs": [
        {
          "indexed": false,
          "internalType": "string",
          "name": "reason",
          "type": "string"
        }
      ],
      "name": "EmergencyConsensusActivated",
      "type": "event"
    },
    {
      "anonymous": false,
      "inputs": [
        {
          "indexed": true,
          "internalType": "bytes32",
          "name": "proofId",
          "type": "bytes32"
        },
        {
          "indexed": false,
          "internalType": "address",
          "name": "validator",
          "type": "address"
        },
        {
          "indexed": false,
          "internalType": "uint256",
          "name": "hopIndex",
          "type": "uint256"
        },
        {
          "indexed": false,
          "internalType": "bytes32",
          "name": "proof",
          "type": "bytes32"
        }
      ],
      "name": "HopValidated",
      "type": "event"
    },
    {
      "anonymous": false,
      "inputs": [
        {
          "indexed": true,
          "internalType": "address",
          "name": "previousOwner",
          "type": "address"
        },
        {
          "indexed": true,
          "internalType": "address",
          "name": "newOwner",
          "type": "address"
        }
      ],
      "name": "OwnershipTransferred",
      "type": "event"
    },
    {
      "anonymous": false,
      "inputs": [
        {
          "indexed": true,
          "internalType": "uint256",
          "name": "shardId",
          "type": "uint256"
        },
        {
          "indexed": false,
          "internalType": "address[]",
          "name": "newValidators",
          "type": "address[]"
        }
      ],
      "name": "ShardRebalanced",
      "type": "event"
    },
    {
      "anonymous": false,
      "inputs": [
        {
          "indexed": true,
          "internalType": "address",
          "name": "validator",
          "type": "address"
        },
        {
          "indexed": false,
          "internalType": "uint256",
          "name": "validationPower",
          "type": "uint256"
        }
      ],
      "name": "ValidatorAuthorized",
      "type": "event"
    },
    {
      "inputs": [
        {
          "internalType": "string",
          "name": "reason",
          "type": "string"
        }
      ],
      "name": "activateEmergencyConsensus",
      "outputs": [],
      "stateMutability": "nonpayable",
      "type": "function"
    },
    {
      "inputs": [
        {
          "internalType": "uint256",
          "name": "",
          "type": "uint256"
        }
      ],
      "name": "activeValidators",
      "outputs": [
        {
          "internalType": "address",
          "name": "",
          "type": "address"
        }
      ],
      "stateMutability": "view",
      "type": "function"
    },
    {
      "inputs": [
        {
          "internalType": "address",
          "name": "validator",
          "type": "address"
        },
        {
          "internalType": "uint256",
          "name": "validationPower",
          "type": "uint256"
        }
      ],
      "name": "authorizeValidator",
      "outputs": [],
      "stateMutability": "nonpayable",
      "type": "function"
    },
    {
      "inputs": [],
      "name": "consensusParams",
      "outputs": [
        {
          "internalType": "uint256",
          "name": "minValidators",
          "type": "uint256"
        },
        {
          "internalType": "uint256",
          "name": "optimalValidators",
          "type": "uint256"
        },
        {
          "internalType": "uint256",
          "name": "consensusThreshold",
          "type": "uint256"
        },
        {
          "internalType": "uint256",
          "name": "maxValidationTime",
          "type": "uint256"
        },
        {
          "internalType": "uint256",
          "name": "hopTimeoutMs",
          "type": "uint256"
        },
        {
          "internalType": "uint256",
          "name": "shardRebalanceInterval",
          "type": "uint256"
        },
        {
          "internalType": "bool",
          "name": "emergencyConsensusMode",
          "type": "bool"
        }
      ],
      "stateMutability": "view",
      "type": "function"
    },
    {
      "inputs": [
        {
          "internalType": "bytes32",
          "name": "",
          "type": "bytes32"
        }
      ],
      "name": "consensusProofs",
      "outputs": [
        {
          "internalType": "bytes32",
          "name": "transactionHash",
          "type": "bytes32"
        },
        {
          "internalType": "bytes",
          "name": "signature",
          "type": "bytes"
        },
        {
          "internalType": "uint256",
          "name": "consensusScore",
          "type": "uint256"
        },
        {
          "internalType": "enum ConsensusProofEngine.ProofStatus",
          "name": "status",
          "type": "uint8"
        }
      ],
      "stateMutability": "view",
      "type": "function"
    },
    {
      "inputs": [],
      "name": "deactivateEmergencyConsensus",
      "outputs": [],
      "stateMutability": "nonpayable",
      "type": "function"
    },
    {
      "inputs": [
        {
          "internalType": "bytes32",
          "name": "proofId",
          "type": "bytes32"
        }
      ],
      "name": "getConsensusProof",
      "outputs": [
        {
          "internalType": "bytes32",
          "name": "transactionHash",
          "type": "bytes32"
        },
        {
          "internalType": "address[]",
          "name": "validationPath",
          "type": "address[]"
        },
        {
          "internalType": "uint256",
          "name": "consensusScore",
          "type": "uint256"
        },
        {
          "internalType": "enum ConsensusProofEngine.ProofStatus",
          "name": "status",
          "type": "uint8"
        },
        {
          "internalType": "uint256",
          "name": "completedHops",
          "type": "uint256"
        }
      ],
      "stateMutability": "view",
      "type": "function"
    },
    {
      "inputs": [],
      "name": "getNetworkMetrics",
      "outputs": [
        {
          "internalType": "uint256",
          "name": "activeValidatorCount",
          "type": "uint256"
        },
        {
          "internalType": "uint256",
          "name": "averageConsensusTime",
          "type": "uint256"
        },
        {
          "internalType": "uint256",
          "name": "validationSuccessRate",
          "type": "uint256"
        },
        {
          "internalType": "uint256",
          "name": "networkUtilityScore",
          "type": "uint256"
        },
        {
          "internalType": "uint256",
          "name": "totalValidationsToday",
          "type": "uint256"
        }
      ],
      "stateMutability": "view",
      "type": "function"
    },
    {
      "inputs": [
        {
          "internalType": "address",
          "name": "validator",
          "type": "address"
        }
      ],
      "name": "getValidatorMetrics",
      "outputs": [
        {
          "internalType": "uint256",
          "name": "validationPower",
          "type": "uint256"
        },
        {
          "internalType": "uint256",
          "name": "successfulValidations",
          "type": "uint256"
        },
        {
          "internalType": "uint256",
          "name": "failedValidations",
          "type": "uint256"
        },
        {
          "internalType": "uint256",
          "name": "successRate",
          "type": "uint256"
        },
        {
          "internalType": "bool",
          "name": "isAuthorized",
          "type": "bool"
        }
      ],
      "stateMutability": "view",
      "type": "function"
    },
    {
      "inputs": [
        {
          "internalType": "bytes32",
          "name": "transactionHash",
          "type": "bytes32"
        },
        {
          "internalType": "uint256",
          "name": "requiredValidators",
          "type": "uint256"
        }
      ],
      "name": "initiateConsensusProof",
      "outputs": [
        {
          "internalType": "bytes32",
          "name": "proofId",
          "type": "bytes32"
        }
      ],
      "stateMutability": "nonpayable",
      "type": "function"
    },
    {
      "inputs": [],
      "name": "networkMetrics",
      "outputs": [
        {
          "internalType": "uint256",
          "name": "dailyValidations",
          "type": "uint256"
        },
        {
          "internalType": "uint256",
          "name": "crossChainValidations",
          "type": "uint256"
        },
        {
          "internalType": "uint256",
          "name": "averageConsensusTime",
          "type": "uint256"
        },
        {
          "internalType": "uint256",
          "name": "networkUtilityScore",
          "type": "uint256"
        },
        {
          "internalType": "uint256",
          "name": "validationSuccessRate",
          "type": "uint256"
        }
      ],
      "stateMutability": "view",
      "type": "function"
    },
    {
      "inputs": [],
      "name": "owner",
      "outputs": [
        {
          "internalType": "address",
          "name": "",
          "type": "address"
        }
      ],
      "stateMutability": "view",
      "type": "function"
    },
    {
      "inputs": [
        {
          "internalType": "uint256",
          "name": "",
          "type": "uint256"
        }
      ],
      "name": "pendingProofs",
      "outputs": [
        {
          "internalType": "bytes32",
          "name": "",
          "type": "bytes32"
        }
      ],
      "stateMutability": "view",
      "type": "function"
    },
    {
      "inputs": [
        {
          "internalType": "bytes32",
          "name": "",
          "type": "bytes32"
        }
      ],
      "name": "proofToValidator",
      "outputs": [
        {
          "internalType": "address",
          "name": "",
          "type": "address"
        }
      ],
      "stateMutability": "view",
      "type": "function"
    },
    {
      "inputs": [],
      "name": "rebalanceShards",
      "outputs": [],
      "stateMutability": "nonpayable",
      "type": "function"
    },
    {
      "inputs": [],
      "name": "renounceOwnership",
      "outputs": [],
      "stateMutability": "nonpayable",
      "type": "function"
    },
    {
      "inputs": [
        {
          "internalType": "bytes32",
          "name": "proofId",
          "type": "bytes32"
        },
        {
          "internalType": "uint256",
          "name": "hopIndex",
          "type": "uint256"
        },
        {
          "internalType": "bytes32",
          "name": "hopProof",
          "type": "bytes32"
        }
      ],
      "name": "submitHopValidation",
      "outputs": [],
      "stateMutability": "nonpayable",
      "type": "function"
    },
    {
      "inputs": [],
      "name": "totalShards",
      "outputs": [
        {
          "internalType": "uint256",
          "name": "",
          "type": "uint256"
        }
      ],
      "stateMutability": "view",
      "type": "function"
    },
    {
      "inputs": [],
      "name": "totalValidations",
      "outputs": [
        {
          "internalType": "uint256",
          "name": "",
          "type": "uint256"
        }
      ],
      "stateMutability": "view",
      "type": "function"
    },
    {
      "inputs": [
        {
          "internalType": "address",
          "name": "newOwner",
          "type": "address"
        }
      ],
      "name": "transferOwnership",
      "outputs": [],
      "stateMutability": "nonpayable",
      "type": "function"
    },
    {
      "inputs": [
        {
          "components": [
            {
              "internalType": "uint256",
              "name": "minValidators",
              "type": "uint256"
            },
            {
              "internalType": "uint256",
              "name": "optimalValidators",
              "type": "uint256"
            },
            {
              "internalType": "uint256",
              "name": "consensusThreshold",
              "type": "uint256"
            },
            {
              "internalType": "uint256",
              "name": "maxValidationTime",
              "type": "uint256"
            },
            {
              "internalType": "uint256",
              "name": "hopTimeoutMs",
              "type": "uint256"
            },
            {
              "internalType": "uint256",
              "name": "shardRebalanceInterval",
              "type": "uint256"
            },
            {
              "internalType": "bool",
              "name": "emergencyConsensusMode",
              "type": "bool"
            }
          ],
          "internalType": "struct ConsensusProofEngine.ConsensusParams",
          "name": "newParams",
          "type": "tuple"
        }
      ],
      "name": "updateConsensusParams",
      "outputs": [],
      "stateMutability": "nonpayable",
      "type": "function"
    },
    {
      "inputs": [
        {
          "internalType": "address",
          "name": "",
          "type": "address"
        }
      ],
      "name": "validationNodes",
      "outputs": [
        {
          "internalType": "address",
          "name": "nodeAddress",
          "type": "address"
        },
        {
          "internalType": "uint256",
          "name": "validationPower",
          "type": "uint256"
        },
        {
          "internalType": "uint256",
          "name": "successfulValidations",
          "type": "uint256"
        },
        {
          "internalType": "uint256",
          "name": "failedValidations",
          "type": "uint256"
        },
        {
          "internalType": "uint256",
          "name": "averageLatency",
          "type": "uint256"
        },
        {
          "internalType": "uint256",
          "name": "lastValidation",
          "type": "uint256"
        },
        {
          "internalType": "bool",
          "name": "isAuthorized",
          "type": "bool"
        },
        {
          "internalType": "bytes32",
          "name": "nodeSignature",
          "type": "bytes32"
        }
      ],
      "stateMutability": "view",
      "type": "function"
    },
    {
      "inputs": [
        {
          "internalType": "uint256",
          "name": "",
          "type": "uint256"
        }
      ],
      "name": "validationShards",
      "outputs": [
        {
          "internalType": "uint256",
          "name": "shardId",
          "type": "uint256"
        },
        {
          "internalType": "uint256",
          "name": "activeValidations",
          "type": "uint256"
        },
        {
          "internalType": "uint256",
          "name": "shardCapacity",
          "type": "uint256"
        },
        {
          "internalType": "uint256",
          "name": "averageConsensusTime",
          "type": "uint256"
        },
        {
          "internalType": "bool",
          "name": "isActive",
          "type": "bool"
        }
      ],
      "stateMutability": "view",
      "type": "function"
    }
  ],
  "bytecode": "0x608034620002c557601f620021c638819003918201601f19168301916001600160401b038311848410176200028657808492602094604052833981010312620002c557516001600160a01b03811690819003620002c5578015620002ac57600080546001600160a01b03198116831782556001600160a01b0316907f8be0079c531659141344cd1fd0a4f28419497f9722a3daafe3b4186f6b6457e09080a36001805560405160e081016001600160401b038111828210176200028657604052600381526005602082015261029e80604083015261012c8060608401526107d091826080850152600060c0610e10958660a082015201526003600a556005600b55600c55600d55600e55600f5560ff1960105416601055600360085560005b6008548110156200029c57604051906001600160401b036020830190811190831117620002865760208201604090815260008352516001600160401b0360c0820190811190821117620002865760c0810160405281815260208101928352600060408201526064606082015260006080820152600160a0820152816000526004602052604060002092815184555192835160018060401b0381116200028657680100000000000000008111620002865760019485830154828785015580831062000258575b50602001858301600052602060002060005b8381106200023d5750505050600560a09160408401516002820155606084015160038201556080840151600482015501910151151560ff80198354169116179055016200011e565b87906020828060a01b038551169401938184015501620001f5565b8684016000526020600020908382015b81830181106200027a575050620001e3565b60008155880162000268565b634e487b7160e01b600052604160045260246000fd5b604051611efb9081620002cb8239f35b604051631e4fbdf760e01b815260006004820152602490fd5b600080fdfe6080604052600436101561001257600080fd5b60003560e01c806314f64c78146114f757806322dd21a6146113b257806322dffb851461109957806327aed4851461100a5780632b1d1c3914610fd357806340a772d514610f9f57806366c7f6df14610f5a5780636e06541c14610eed578063715018a614610e945780637e83514b14610e765780638882723114610de15780638da5cb5b14610db85780639fd02a3614610d62578063a3d804cc14610c94578063b18185f614610c76578063b41ff42e14610c19578063b5d8701814610b66578063c91f1c2814610b35578063d5d00fcd14610a7b578063da0a93d8146109a9578063f1b1b6ce14610960578063f25153ff146101a75763f2fde38b1461011957600080fd5b346101a25760203660031901126101a25761013261166f565b61013a611e85565b6001600160a01b0390811690811561018957600054826001600160601b0360a01b821617600055167f8be0079c531659141344cd1fd0a4f28419497f9722a3daafe3b4186f6b6457e0600080a3005b604051631e4fbdf760e01b815260006004820152602490fd5b600080fd5b346101a25760403660031901126101a25760026001541461094e57600260015560043515610909576101df600a546024351015611de5565b6006546024358110806108c4576040516020810160043581523360601b918260408201524260548201524460748201526074815261021c81611624565b51902091826000526002602052604060002054610888578361023f849215611de5565b61024a602435611e31565b926102586040519485611640565b6024358452610268602435611e31565b601f190136602086013761027b82611e31565b906102896040519283611640565b828252601f1961029884611e31565b0136602084013760095460405190602082019242845244604084015260608301526074820152607481526102cb81611624565b519020916000925b602435841061074b57858581516102e981611e31565b906102f76040519283611640565b808252610306601f1991611e31565b01366020830137825161031881611e31565b906103266040519283611640565b808252610335601f1991611e31565b013660208301376040519160e0830183811067ffffffffffffffff8211176105ed5760405260043583528460208401526040830152606082015260405180602081011067ffffffffffffffff6020830111176105ed5760208101604052600081526080820152600060a0820152600060c0820152816000526002602052604060002081518155602082015180519067ffffffffffffffff82116105ed57600160401b82116105ed57600183018054838255602092916103f5918591611e60565b0160018301600052602060002060005b83811061072e5750505050604082015180519067ffffffffffffffff82116105ed57600160401b82116105ed576002830154826002850155808310610701575b5060200160028301600052602060002060005b8381106106ed5750505050606082015180519067ffffffffffffffff82116105ed57600160401b82116105ed576003830180548382556020929161049d918591611e60565b0160038301600052602060002060005b8381106106d95750505050608082015180519067ffffffffffffffff82116105ed576104dc60048401546115ea565b601f8111610699575b50602090601f831160011461062457918060c09492600694600092610619575b50508160011b916000199060031b1c19161760048201555b60a084015160058201550191015160058110156106035760ff80198354169116179055600754600160401b8110156105ed577fbb1fb24dfda98bc56d911ad03b4a9301040a21bb0b9d4c63f25e854737099d1e6105de602094846105a261058b866001849801600755611586565b819391549060031b91821b91600019901b19161790565b905583600052600586526040600020336001600160601b0360a01b82541617905560405191829160043583526040888401526040830190611685565b0390a260018055604051908152f35b634e487b7160e01b600052604160045260246000fd5b634e487b7160e01b600052602160045260246000fd5b015190508880610505565b906004840160005260206000209160005b601f198516811061068157509260c0949260019260069583601f19811610610668575b505050811b01600482015561051d565b015160001960f88460031b161c19169055888080610658565b91926020600181928685015181550194019201610635565b6106c990600485016000526020600020601f850160051c810191602086106106cf575b601f0160051c0190611e49565b866104e5565b90915081906106bc565b6001906020845194019381840155016104ad565b600190602084519401938184015501610458565b600284016000526020600020908382015b8183018110610722575050610445565b60008155600101610712565b82516001600160a01b031681830155602090920191600101610405565b9394929360008060015b15610825575b506000906103e58088029088820414881517156107f957816107806107859286611718565b611718565b841561080f5784610797910691611709565b91848060011b04600214851517156107f9578460011b831115610755575060019295979691506107d6909493945b836107d08287611eb1565b52611539565b838060a01b0391549060031b1c166107ee8289611eb1565b5201929190916102d3565b634e487b7160e01b600052601160045260246000fd5b634e487b7160e01b600052601260045260246000fd5b61082f8186611eb1565b5115801590610851575b61075b5760019295979691506107d6909493946107c5565b5061085b81611539565b9054600391821b1c6001600160a01b03166000908152602091909152604090206006015460ff1615610839565b60405162461bcd60e51b815260206004820152601460248201527350726f6f6620616c72656164792065786973747360601b6044820152606490fd5b60405162461bcd60e51b815260206004820152601c60248201527f4e6f7420656e6f756768206163746976652076616c696461746f7273000000006044820152606490fd5b60405162461bcd60e51b815260206004820152601860248201527f496e76616c6964207472616e73616374696f6e206861736800000000000000006044820152606490fd5b604051633ee5aeb560e01b8152600490fd5b346101a25760003660031901126101a257601154601254601354601454601554604080519586526020860194909452928401919091526060830152608082015260a090f35b0390f35b346101a25760603660031901126101a25760043533600052600360205260ff6006604060002001541615610a3657806000526002602052604060002054156109fe576109fc906044359060243590611742565b005b60405162461bcd60e51b815260206004820152601060248201526f125b9d985b1a59081c1c9bdbd988125160821b6044820152606490fd5b60405162461bcd60e51b815260206004820152601860248201527f4e6f7420617574686f72697a65642076616c696461746f7200000000000000006044820152606490fd5b346101a25760203660031901126101a25767ffffffffffffffff6004358181116101a257366023820112156101a25780600401359182116101a25736602483830101116101a25760406024917f3fcd9277c9ad4bfcaa4904395f1ba77b45ba547d2fcbf63924c55b9af6c063e193610af1611e85565b600160ff1960105416176010556101fe600c55603c600d558083519485936020855282602086015201848401376000828201840152601f01601f19168101030190a1005b346101a25760003660031901126101a257610b4e611e85565b6010805460ff1916905561029e600c5561012c600d55005b346101a25760203660031901126101a2576001600160a01b03610b8761166f565b16600052600360205260406000206002810154906003810154610baa8184611718565b908115610c0c576103e88085029085820414851517156107f9576109a592610bd191611738565b60ff6006600186015495015416916040519586958693909594919260809360a086019786526020860152604085015260608401521515910152565b6109a591506103e8610bd1565b346101a25760e03660031901126101a257610c32611e85565b600435600a55602435600b55604435600c55606435600d55608435600e5560a435600f5560c4358015158091036101a25760ff801960105416911617601055600080f35b346101a25760003660031901126101a2576020600854604051908152f35b346101a25760203660031901126101a2576004356000526002602052600160406000206000906000600282018054915b828110610d3257505050805491610d29600583015492610cfd60ff60068301541691610cf660405180998193016116c2565b0387611640565b610d19604051968796875260a0602088015260a0870190611685565b9360408601526060850190611662565b60808301520390f35b610d3c81836115d2565b90549060031b1c610d4f575b8501610cc4565b93610d5a8691611709565b949050610d48565b346101a25760003660031901126101a25760e0600a54600b54600c54600d54600e5490600f549260ff6010541694604051968752602087015260408601526060850152608084015260a0830152151560c0820152f35b346101a25760003660031901126101a2576000546040516001600160a01b039091168152602090f35b346101a25760003660031901126101a257610dfa611e85565b60085460005b818110610e0957005b8060019160005280602060048152604060002060ff600582015416610e32575b50505001610e00565b7fdab99eab653db0ff65909a21e652a451dac32d1943b7880e0d5e57241f495db291610e6b8692604051938385948552840191016116c2565b0390a2808480610e29565b346101a25760003660031901126101a2576020600954604051908152f35b346101a25760003660031901126101a257610ead611e85565b600080546001600160a01b0319811682556001600160a01b03167f8be0079c531659141344cd1fd0a4f28419497f9722a3daafe3b4186f6b6457e08280a3005b346101a25760203660031901126101a2576004356000526004602052604060002080546109a560028301549260038101549060ff6005600483015492015416916040519586958693909594919260809360a086019786526020860152604085015260608401521515910152565b346101a25760003660031901126101a257600654601354601554601454601154604080519586526020860194909452928401919091526060830152608082015260a090f35b346101a25760203660031901126101a2576004356000526005602052602060018060a01b0360406000205416604051908152f35b346101a25760203660031901126101a2576004356007548110156101a257610ffc602091611586565b90546040519160031b1c8152f35b346101a25760203660031901126101a2576101006001600160a01b038061102f61166f565b1660005260036020526040600020908154169060018101549060028101546003820154600483015490600584015492600760ff60068701541695015495604051978852602088015260408701526060860152608085015260a0840152151560c083015260e0820152f35b346101a25760403660031901126101a2576110b261166f565b6024908135906110c0611e85565b6001600160a01b0381811693909190841561136e5783151580611362575b1561131e576040516020808201936001600160601b03199060601b168452426034830152603482526060820167ffffffffffffffff9483821086831117611309578160405283519020946101608401908282109082111761130957908892916040528281526007608085019689885260a086016000815260c087016000815260e08801916103e8835261010089019a60008c526101208a019861014060019b8c8c520195865260005260036020528c60406000209751166001600160601b0360a01b885416178755518987015551600286015551600385015551600484015560059751600584015560068301945115159460ff1981541660ff8097161790555191015560065494600160401b95868110156112f45780856112029201600655611539565b81549060031b90898c831b921b191617905560001960009360009386600854955b8681106112b057505050505050506000526004602052806040600020019182549384101561129c57508260209492611280927f052677116dd8b289d0e627c66549422bf8013964e6cedf239892f6720d1a004797950181556115d2565b819291549060031b9187831b921b1916179055604051908152a2005b634e487b7160e01b60009081526041600452fd5b80600052600483526040600020848782015416806112e8575b6112d7575b50018790611223565b91929450965001549186868e6112ce565b508583820154106112c9565b85634e487b7160e01b60005260416004526000fd5b84634e487b7160e01b60005260416004526000fd5b60649060186040519162461bcd60e51b8352602060048401528201527f496e76616c69642076616c69646174696f6e20706f77657200000000000000006044820152fd5b506103e88411156110de565b60649060196040519162461bcd60e51b8352602060048401528201527f496e76616c69642076616c696461746f722061646472657373000000000000006044820152fd5b346101a2576020806003193601126101a25760043560005260028152604060002080549160048201916040519283600082546113ed816115ea565b93848452600191876001821691826000146114d5575050600114611496575b505061141e9250959392950384611640565b60ff600660058601549501541660405194859384526080838501528451928360808601526000955b84871061147d57505060a094509061146f91600086858701015260408501526060840190611662565b601f01601f19168101030190f35b86810182015188880160a0015295810195879550611446565b86925060005281600020906000915b8583106114bd57505061141e9350820101878061140c565b8054838a0185015288945087939092019181016114a5565b925093505061141e94915060ff191682840152151560051b820101878061140c565b346101a25760203660031901126101a2576004356006548110156101a257611520602091611539565b905460405160039290921b1c6001600160a01b03168152f35b6006548110156115705760066000527ff652222313e28459528d920b65115c16c04f3efc82aaedc97be59f3f377c0d3f0190600090565b634e487b7160e01b600052603260045260246000fd5b6007548110156115705760076000527fa66cc928b5edb82af9bd49922954155ab7b0942694bea4ce44661d9a8736c6880190600090565b80541561157057600052602060002090600090565b80548210156115705760005260206000200190600090565b90600182811c9216801561161a575b602083101461160457565b634e487b7160e01b600052602260045260246000fd5b91607f16916115f9565b60a0810190811067ffffffffffffffff8211176105ed57604052565b90601f8019910116810190811067ffffffffffffffff8211176105ed57604052565b9060058210156106035752565b600435906001600160a01b03821682036101a257565b90815180825260208080930193019160005b8281106116a5575050505090565b83516001600160a01b031685529381019392810192600101611697565b9081548082526020809201926000526020600020916000905b8282106116e9575050505090565b83546001600160a01b0316855293840193600193840193909101906116db565b60001981146107f95760010190565b919082018092116107f957565b818102929181159184041417156107f957565b811561080f570490565b9190826000526002602052604060002091600683019283549060ff82166005811015610603578015908115611dda575b5015611d9557600181018054851015611d5c578461178f916115d2565b90543360039290921b1c6001600160a01b031603611d175760028101906117b685836115d2565b90549060031b1c611cda57600301916117e06117d1846115bd565b9054600d549160031b1c611718565b4211611c7c5750928261184661182c836060957f3abbf2be7c06f583adbdc9fb20828ead25882a832cb64c1d0de86352402e9f479761182561058b848e9d9e9c6115d2565b90556115d2565b919091429083549060031b91821b91600019901b19161790565b905560ff1996600188825416179055336000526003602052426005604060002001556040519133835260208301526040820152a280600052600260205260406000209060009260018301549360005b858110611c4757506103e881028181046103e814821517156107f957856118bb91611738565b94856005860155600c548610918215600014611aac57505050600260068401918254161790556118ed600383016115bd565b90549060031b1c4203924284116107f95760135480611a895750836013555b611917601154611709565b60118190558015611a80576103e881028181046103e814821517156107f9578161194091611738565b905b816015556207a1208111600014611a5e57506103e85b60125461c350811115611a3357506103e891611978611980928490611718565b60011c611725565b0460145560005b60018401548110156119f057806119a3600192600287016115d2565b90549060031b1c6119b5575b01611987565b6119c1818387016115d2565b838060a01b0391549060031b1c16600052600360205260026040600020016119e98154611709565b90556119af565b507f71c41c8c26be69c8d84d44608d92a8a6c31398883af0ed1480592619d0214dcc925060409193611a23600954611709565b60095582519182526020820152a2565b91826103e88102046103e814831517156107f9576119786119809261c3506103e88096020490611718565b806103e88102046103e814811517156107f9576103e86207a120910204611958565b6103e890611942565b600981029081046009036107f957611aa385600a92611718565b0460135561190c565b90919293949550149081611c3f575b50611ac557505050565b60036006849593940191825416179055601154600181018082116107f9578015611c35576103e88202908282046103e814831517156107f957611b0791611738565b905b816015556207a12090818111600014611c195750506103e8905b60125461c3509081811115611bee575050611b46906119786103e8938490611718565b0460145560005b6001840154811015611b985780611b686001928387016115d2565b838060a01b0391549060031b1c1660005260036020526003604060002001611b908154611709565b905501611b4d565b5091507fba2896303d0879e7620dc7b53cf9e4ec4a84de23d797f880012f80bc4626f3346060604051602081526016602082015275496e73756666696369656e7420636f6e73656e73757360501b6040820152a2565b6103e88193929302908082046103e814901517156107f9576103e893611b4693611978920490611718565b6103e88102908082046103e814901517156107f9570490611b23565b506103e890611b09565b905038611abb565b611c5481600287016115d2565b90549060031b1c611c68575b600101611895565b90611c74600191611709565b919050611c60565b925050506004915060ff19161790557fba2896303d0879e7620dc7b53cf9e4ec4a84de23d797f880012f80bc4626f334606060405160208152601260208201527115985b1a59185d1a5bdb881d1a5b595bdd5d60721b6040820152a2565b60405162461bcd60e51b8152602060048201526015602482015274121bdc08185b1c9958591e481d985b1a59185d1959605a1b6044820152606490fd5b60405162461bcd60e51b815260206004820152601960248201527f556e617574686f72697a656420666f72207468697320686f70000000000000006044820152606490fd5b60405162461bcd60e51b8152602060048201526011602482015270092dcecc2d8d2c840d0dee040d2dcc8caf607b1b6044820152606490fd5b60405162461bcd60e51b815260206004820152601f60248201527f50726f6f66206e6f7420616363657074696e672076616c69646174696f6e73006044820152606490fd5b600191501438611772565b15611dec57565b60405162461bcd60e51b815260206004820152601760248201527f496e73756666696369656e742076616c696461746f72730000000000000000006044820152606490fd5b67ffffffffffffffff81116105ed5760051b60200190565b818110611e54575050565b60008155600101611e49565b91818110611e6d57505050565b611e839260005260206000209182019101611e49565b565b6000546001600160a01b03163303611e9957565b60405163118cdaa760e01b8152336004820152602490fd5b80518210156115705760209160051b01019056fea26469706673582212205b5ac6977042d1fffe871575b5958e5c1d731bcbbab134c800e1881c7f65cf4e64736f6c63430008160033",
  "linkReferences": {},
  "deployedLinkReferences": {}
}