{
  "_format": "hh-sol-artifact-1",
  "contractName": "CaesarCoinDEXPair",
  "sourceName": "contracts/dex/CaesarCoinDEXPair.sol",
  "abi": [
    {
      "inputs": [],
      "stateMutability": "nonpayable",
      "type": "constructor"
    },
    {
      "inputs": [
        {
          "internalType": "address",
          "name": "spender",
          "type": "address"
        },
        {
          "internalType": "uint256",
          "name": "allowance",
          "type": "uint256"
        },
        {
          "internalType": "uint256",
          "name": "needed",
          "type": "uint256"
        }
      ],
      "name": "ERC20InsufficientAllowance",
      "type": "error"
    },
    {
      "inputs": [
        {
          "internalType": "address",
          "name": "sender",
          "type": "address"
        },
        {
          "internalType": "uint256",
          "name": "balance",
          "type": "uint256"
        },
        {
          "internalType": "uint256",
          "name": "needed",
          "type": "uint256"
        }
      ],
      "name": "ERC20InsufficientBalance",
      "type": "error"
    },
    {
      "inputs": [
        {
          "internalType": "address",
          "name": "approver",
          "type": "address"
        }
      ],
      "name": "ERC20InvalidApprover",
      "type": "error"
    },
    {
      "inputs": [
        {
          "internalType": "address",
          "name": "receiver",
          "type": "address"
        }
      ],
      "name": "ERC20InvalidReceiver",
      "type": "error"
    },
    {
      "inputs": [
        {
          "internalType": "address",
          "name": "sender",
          "type": "address"
        }
      ],
      "name": "ERC20InvalidSender",
      "type": "error"
    },
    {
      "inputs": [
        {
          "internalType": "address",
          "name": "spender",
          "type": "address"
        }
      ],
      "name": "ERC20InvalidSpender",
      "type": "error"
    },
    {
      "inputs": [],
      "name": "ReentrancyGuardReentrantCall",
      "type": "error"
    },
    {
      "anonymous": false,
      "inputs": [
        {
          "indexed": true,
          "internalType": "address",
          "name": "owner",
          "type": "address"
        },
        {
          "indexed": true,
          "internalType": "address",
          "name": "spender",
          "type": "address"
        },
        {
          "indexed": false,
          "internalType": "uint256",
          "name": "value",
          "type": "uint256"
        }
      ],
      "name": "Approval",
      "type": "event"
    },
    {
      "anonymous": false,
      "inputs": [
        {
          "indexed": true,
          "internalType": "address",
          "name": "sender",
          "type": "address"
        },
        {
          "indexed": false,
          "internalType": "uint256",
          "name": "amount0",
          "type": "uint256"
        },
        {
          "indexed": false,
          "internalType": "uint256",
          "name": "amount1",
          "type": "uint256"
        },
        {
          "indexed": true,
          "internalType": "address",
          "name": "to",
          "type": "address"
        }
      ],
      "name": "Burn",
      "type": "event"
    },
    {
      "anonymous": false,
      "inputs": [
        {
          "indexed": true,
          "internalType": "address",
          "name": "sender",
          "type": "address"
        },
        {
          "indexed": false,
          "internalType": "uint256",
          "name": "amount0",
          "type": "uint256"
        },
        {
          "indexed": false,
          "internalType": "uint256",
          "name": "amount1",
          "type": "uint256"
        }
      ],
      "name": "Mint",
      "type": "event"
    },
    {
      "anonymous": false,
      "inputs": [
        {
          "indexed": true,
          "internalType": "address",
          "name": "sender",
          "type": "address"
        },
        {
          "indexed": false,
          "internalType": "uint256",
          "name": "amount0In",
          "type": "uint256"
        },
        {
          "indexed": false,
          "internalType": "uint256",
          "name": "amount1In",
          "type": "uint256"
        },
        {
          "indexed": false,
          "internalType": "uint256",
          "name": "amount0Out",
          "type": "uint256"
        },
        {
          "indexed": false,
          "internalType": "uint256",
          "name": "amount1Out",
          "type": "uint256"
        },
        {
          "indexed": true,
          "internalType": "address",
          "name": "to",
          "type": "address"
        }
      ],
      "name": "Swap",
      "type": "event"
    },
    {
      "anonymous": false,
      "inputs": [
        {
          "indexed": false,
          "internalType": "uint112",
          "name": "reserve0",
          "type": "uint112"
        },
        {
          "indexed": false,
          "internalType": "uint112",
          "name": "reserve1",
          "type": "uint112"
        }
      ],
      "name": "Sync",
      "type": "event"
    },
    {
      "anonymous": false,
      "inputs": [
        {
          "indexed": true,
          "internalType": "address",
          "name": "from",
          "type": "address"
        },
        {
          "indexed": true,
          "internalType": "address",
          "name": "to",
          "type": "address"
        },
        {
          "indexed": false,
          "internalType": "uint256",
          "name": "value",
          "type": "uint256"
        }
      ],
      "name": "Transfer",
      "type": "event"
    },
    {
      "inputs": [],
      "name": "MAX_FEE",
      "outputs": [
        {
          "internalType": "uint256",
          "name": "",
          "type": "uint256"
        }
      ],
      "stateMutability": "view",
      "type": "function"
    },
    {
      "inputs": [],
      "name": "MINIMUM_LIQUIDITY",
      "outputs": [
        {
          "internalType": "uint256",
          "name": "",
          "type": "uint256"
        }
      ],
      "stateMutability": "view",
      "type": "function"
    },
    {
      "inputs": [
        {
          "internalType": "address",
          "name": "owner",
          "type": "address"
        },
        {
          "internalType": "address",
          "name": "spender",
          "type": "address"
        }
      ],
      "name": "allowance",
      "outputs": [
        {
          "internalType": "uint256",
          "name": "",
          "type": "uint256"
        }
      ],
      "stateMutability": "view",
      "type": "function"
    },
    {
      "inputs": [
        {
          "internalType": "address",
          "name": "spender",
          "type": "address"
        },
        {
          "internalType": "uint256",
          "name": "value",
          "type": "uint256"
        }
      ],
      "name": "approve",
      "outputs": [
        {
          "internalType": "bool",
          "name": "",
          "type": "bool"
        }
      ],
      "stateMutability": "nonpayable",
      "type": "function"
    },
    {
      "inputs": [
        {
          "internalType": "address",
          "name": "account",
          "type": "address"
        }
      ],
      "name": "balanceOf",
      "outputs": [
        {
          "internalType": "uint256",
          "name": "",
          "type": "uint256"
        }
      ],
      "stateMutability": "view",
      "type": "function"
    },
    {
      "inputs": [
        {
          "internalType": "address",
          "name": "to",
          "type": "address"
        }
      ],
      "name": "burn",
      "outputs": [
        {
          "internalType": "uint256",
          "name": "amount0",
          "type": "uint256"
        },
        {
          "internalType": "uint256",
          "name": "amount1",
          "type": "uint256"
        }
      ],
      "stateMutability": "nonpayable",
      "type": "function"
    },
    {
      "inputs": [],
      "name": "collectProtocolFee",
      "outputs": [],
      "stateMutability": "nonpayable",
      "type": "function"
    },
    {
      "inputs": [],
      "name": "decimals",
      "outputs": [
        {
          "internalType": "uint8",
          "name": "",
          "type": "uint8"
        }
      ],
      "stateMutability": "view",
      "type": "function"
    },
    {
      "inputs": [],
      "name": "factory",
      "outputs": [
        {
          "internalType": "address",
          "name": "",
          "type": "address"
        }
      ],
      "stateMutability": "view",
      "type": "function"
    },
    {
      "inputs": [
        {
          "internalType": "uint256",
          "name": "amountOut",
          "type": "uint256"
        },
        {
          "internalType": "address",
          "name": "tokenOut",
          "type": "address"
        }
      ],
      "name": "getAmountIn",
      "outputs": [
        {
          "internalType": "uint256",
          "name": "amountIn",
          "type": "uint256"
        }
      ],
      "stateMutability": "view",
      "type": "function"
    },
    {
      "inputs": [
        {
          "internalType": "uint256",
          "name": "amountIn",
          "type": "uint256"
        },
        {
          "internalType": "address",
          "name": "tokenIn",
          "type": "address"
        }
      ],
      "name": "getAmountOut",
      "outputs": [
        {
          "internalType": "uint256",
          "name": "amountOut",
          "type": "uint256"
        }
      ],
      "stateMutability": "view",
      "type": "function"
    },
    {
      "inputs": [],
      "name": "getReserves",
      "outputs": [
        {
          "internalType": "uint112",
          "name": "_reserve0",
          "type": "uint112"
        },
        {
          "internalType": "uint112",
          "name": "_reserve1",
          "type": "uint112"
        },
        {
          "internalType": "uint32",
          "name": "_blockTimestampLast",
          "type": "uint32"
        }
      ],
      "stateMutability": "view",
      "type": "function"
    },
    {
      "inputs": [],
      "name": "getTradingFee",
      "outputs": [
        {
          "internalType": "uint256",
          "name": "",
          "type": "uint256"
        }
      ],
      "stateMutability": "view",
      "type": "function"
    },
    {
      "inputs": [
        {
          "internalType": "address",
          "name": "_token0",
          "type": "address"
        },
        {
          "internalType": "address",
          "name": "_token1",
          "type": "address"
        }
      ],
      "name": "initialize",
      "outputs": [],
      "stateMutability": "nonpayable",
      "type": "function"
    },
    {
      "inputs": [],
      "name": "kLast",
      "outputs": [
        {
          "internalType": "uint256",
          "name": "",
          "type": "uint256"
        }
      ],
      "stateMutability": "view",
      "type": "function"
    },
    {
      "inputs": [
        {
          "internalType": "address",
          "name": "to",
          "type": "address"
        }
      ],
      "name": "mint",
      "outputs": [
        {
          "internalType": "uint256",
          "name": "liquidity",
          "type": "uint256"
        }
      ],
      "stateMutability": "nonpayable",
      "type": "function"
    },
    {
      "inputs": [],
      "name": "name",
      "outputs": [
        {
          "internalType": "string",
          "name": "",
          "type": "string"
        }
      ],
      "stateMutability": "view",
      "type": "function"
    },
    {
      "inputs": [],
      "name": "price0CumulativeLast",
      "outputs": [
        {
          "internalType": "uint256",
          "name": "",
          "type": "uint256"
        }
      ],
      "stateMutability": "view",
      "type": "function"
    },
    {
      "inputs": [],
      "name": "price1CumulativeLast",
      "outputs": [
        {
          "internalType": "uint256",
          "name": "",
          "type": "uint256"
        }
      ],
      "stateMutability": "view",
      "type": "function"
    },
    {
      "inputs": [
        {
          "internalType": "address",
          "name": "to",
          "type": "address"
        }
      ],
      "name": "skim",
      "outputs": [],
      "stateMutability": "nonpayable",
      "type": "function"
    },
    {
      "inputs": [
        {
          "internalType": "uint256",
          "name": "amount0Out",
          "type": "uint256"
        },
        {
          "internalType": "uint256",
          "name": "amount1Out",
          "type": "uint256"
        },
        {
          "internalType": "address",
          "name": "to",
          "type": "address"
        },
        {
          "internalType": "bytes",
          "name": "data",
          "type": "bytes"
        }
      ],
      "name": "swap",
      "outputs": [],
      "stateMutability": "nonpayable",
      "type": "function"
    },
    {
      "inputs": [],
      "name": "symbol",
      "outputs": [
        {
          "internalType": "string",
          "name": "",
          "type": "string"
        }
      ],
      "stateMutability": "view",
      "type": "function"
    },
    {
      "inputs": [],
      "name": "sync",
      "outputs": [],
      "stateMutability": "nonpayable",
      "type": "function"
    },
    {
      "inputs": [],
      "name": "token0",
      "outputs": [
        {
          "internalType": "address",
          "name": "",
          "type": "address"
        }
      ],
      "stateMutability": "view",
      "type": "function"
    },
    {
      "inputs": [],
      "name": "token1",
      "outputs": [
        {
          "internalType": "address",
          "name": "",
          "type": "address"
        }
      ],
      "stateMutability": "view",
      "type": "function"
    },
    {
      "inputs": [],
      "name": "totalFeeCollected0",
      "outputs": [
        {
          "internalType": "uint256",
          "name": "",
          "type": "uint256"
        }
      ],
      "stateMutability": "view",
      "type": "function"
    },
    {
      "inputs": [],
      "name": "totalFeeCollected1",
      "outputs": [
        {
          "internalType": "uint256",
          "name": "",
          "type": "uint256"
        }
      ],
      "stateMutability": "view",
      "type": "function"
    },
    {
      "inputs": [],
      "name": "totalSupply",
      "outputs": [
        {
          "internalType": "uint256",
          "name": "",
          "type": "uint256"
        }
      ],
      "stateMutability": "view",
      "type": "function"
    },
    {
      "inputs": [
        {
          "internalType": "address",
          "name": "to",
          "type": "address"
        },
        {
          "internalType": "uint256",
          "name": "value",
          "type": "uint256"
        }
      ],
      "name": "transfer",
      "outputs": [
        {
          "internalType": "bool",
          "name": "",
          "type": "bool"
        }
      ],
      "stateMutability": "nonpayable",
      "type": "function"
    },
    {
      "inputs": [
        {
          "internalType": "address",
          "name": "from",
          "type": "address"
        },
        {
          "internalType": "address",
          "name": "to",
          "type": "address"
        },
        {
          "internalType": "uint256",
          "name": "value",
          "type": "uint256"
        }
      ],
      "name": "transferFrom",
      "outputs": [
        {
          "internalType": "bool",
          "name": "",
          "type": "bool"
        }
      ],
      "stateMutability": "nonpayable",
      "type": "function"
    }
  ],
  "bytecode": "0x60e060409080825234620004be576200001881620004c3565b600e815260206d04761746577617920444558204c560941b818301528251916200004283620004c3565b600580845264047572d4c560dc1b8484015281516001600160401b039390929091848411620003c05760038054946001938487811c97168015620004b3575b868810146200049d578190601f9788811162000449575b508690888311600114620003e257600092620003d6575b505060001982841b1c191690841b1781555b865190868211620003c05760049788548581811c91168015620003b5575b87821014620003a057908188859493116200034a575b508690888411600114620002df57600093620002d3575b505082851b92600019911b1c19161786555b553360805284519163787ae8f160e11b835285838681335afa938415620002c85760009586956200024e575b87878760c05260a052516128d79081620004f5823960805181818161037a0152818161056401528181610779015281816113e60152818161156e015281816116c001528181611bff0152612622015260a0518181816101a7015281816102e701528181610699015281816107ea01528181610b8a01528181610cfb01528181610db3015281816111380152818161162f015281816117be01528181611a6401528181611ac70152611fe0015260c0518181816101ef0152818161046e0152818161051a015281816106090152818161087f01528181610be001528181610d6201528181610e090152818161118001528181611b1d01528181611f57015261207e0152f35b909192945086959395923d8811620002bf575b8301601f1916860191821186831017620002ac575085918591835281010312620002a957506200029e906200029683620004df565b9201620004df565b38808080806200014a565b80fd5b634e487b7160e01b845260419052602483fd5b3d935062000261565b86513d6000823e3d90fd5b0151915038806200010c565b9190869450601f198416928b600052886000209360005b8a82821062000333575050851162000318575b50505050811b0186556200011e565b01519060f884600019921b161c191690553880808062000309565b8385015187558a98909601959384019301620002f6565b90919250896000528660002088808601871c82019289871062000396575b918891879695949301881c01915b82811062000386575050620000f5565b6000815586955088910162000376565b9250819262000368565b60228a634e487b7160e01b6000525260246000fd5b90607f1690620000df565b634e487b7160e01b600052604160045260246000fd5b015190503880620000af565b90869350601f1983169185600052886000209260005b8a82821062000432575050841162000419575b505050811b018155620000c1565b015160001983861b60f8161c191690553880806200040b565b8385015186558a97909501949384019301620003f8565b909150836000528660002088808501871c82019289861062000493575b9188918695949301881c01915b8281106200048357505062000098565b6000815585945088910162000473565b9250819262000466565b634e487b7160e01b600052602260045260246000fd5b96607f169662000081565b600080fd5b604081019081106001600160401b03821117620003c057604052565b51906001600160a01b0382168203620004be5756fe6080604052600436101561001257600080fd5b60003560e01c8063022c0d9f1461198c57806306fdde03146118cc5780630902f1ac14611873578063095ea7b3146117ed5780630dfe1681146117a85780631125f13f1461160257806318160ddd146115e45780631bd8db031461154257806323b872dd14611450578063313ce567146114345780634529480814611416578063485cc955146113bd5780635909c0d51461139f5780635a3d5493146113815780636a627842146110cd57806370a08231146110935780637464fc3d1461107557806389afcb4414610b2c57806395d89b4114610a25578063a9059cbb146109f4578063ba9a7a56146109d7578063bc063e1a146109bb578063bc25cf77146107a8578063c45a015514610763578063caa4b46a14610549578063d21220a714610504578063dd62ed3e146104b3578063e61f302114610495578063f140a35a146102ba5763fff6cae91461016657600080fd5b346102715760003660031901126102715761017f612362565b6040516370a0823160e01b8082523060048301526001600160a01b03916020919082816024817f000000000000000000000000000000000000000000000000000000000000000088165afa91821561027d578391600093610289575b5060246040518096819382523060048301527f0000000000000000000000000000000000000000000000000000000000000000165afa91821561027d57600092610246575b61023f8383600654916001600160701b03808460701c16931691612385565b6001600555005b90915082813d8311610276575b61025d81836121df565b810103126102715761023f91519038610220565b600080fd5b503d610253565b6040513d6000823e3d90fd5b8281939294503d83116102b3575b6102a181836121df565b810103126102715782905191386101db565b503d610297565b34610271576040366003190112610271576004356102d66120dc565b9060018060a01b03809216610318837f000000000000000000000000000000000000000000000000000000000000000016821480928115610469575b506122bd565b610323821515612226565b1561044d576006549160246001600160701b038085169460701c16925b60206001600160701b038096169384151580610442575b61036090612193565b6040516322b8969360e01b815230600482015293849182907f0000000000000000000000000000000000000000000000000000000000000000165afa91821561027d5760009261040e575b506103e89182038281116103f8576103c786916103cf9361227d565b94168461227d565b91029283169283036103f8576103ea6103f0926020946122b0565b90612290565b604051908152f35b634e487b7160e01b600052601160045260246000fd5b9091506020813d60201161043a575b8161042a602093836121df565b81010312610271575190856103ab565b3d915061041d565b508587161515610357565b6006549160246001600160701b03808560701c16941692610340565b9050847f0000000000000000000000000000000000000000000000000000000000000000161485610312565b34610271576000366003190112610271576020600a54604051908152f35b34610271576040366003190112610271576104cc6120c6565b6104d46120dc565b9060018060a01b038091166000526001602052604060002091166000526020526020604060002054604051908152f35b34610271576000366003190112610271576040517f00000000000000000000000000000000000000000000000000000000000000006001600160a01b03168152602090f35b34610271576000366003190112610271576001600160a01b037f0000000000000000000000000000000000000000000000000000000000000000811690610591338314612302565b6040518092622fcfcb60e31b825281600460209586935afa90811561027d57600091610736575b50818116156106f157600a54838161066d575b5050600b54806105d757005b60405163a9059cbb60e01b81526001600160a01b039290921660048301526024820152908290829060449082906000907f0000000000000000000000000000000000000000000000000000000000000000165af1801561027d5761063f575b50506000600b55005b8161065e92903d10610666575b61065681836121df565b810190612201565b508080610636565b503d61064c565b60405163a9059cbb60e01b81526001600160a01b038416600482015260248101929092528160448160007f000000000000000000000000000000000000000000000000000000000000000088165af1801561027d576106d4575b506000600a5583836105cb565b6106ea90843d86116106665761065681836121df565b50836106c7565b60405162461bcd60e51b815260048101849052601760248201527f444558506169723a204645455f544f5f4e4f545f5345540000000000000000006044820152606490fd5b6107569150833d851161075c575b61074e81836121df565b810190612343565b836105b8565b503d610744565b34610271576000366003190112610271576040517f00000000000000000000000000000000000000000000000000000000000000006001600160a01b03168152602090f35b3461027157602080600319360112610271576107c26120c6565b6107ca612362565b6040516370a0823160e01b80825230600483015290916001600160a01b037f0000000000000000000000000000000000000000000000000000000000000000811691908585602481865afa94851561027d5760009561098c575b5061083c6001600160701b0395866006541690612219565b60405163a9059cbb60e01b8082526001600160a01b0385166004830152602482019290925290938790829060449082906000905af1801561027d5761096f575b507f000000000000000000000000000000000000000000000000000000000000000016906040519384523060048501528584602481855afa801561027d57869460009161093c575b506108dc6000916109099760065460701c1690612219565b6040519485526001600160a01b039092166004850152602484019190915291938492839182906044820190565b03925af1801561027d5761091e576001600555005b8161093492903d106106665761065681836121df565b50808061023f565b85819692503d8311610968575b61095381836121df565b810103126102715792518593906108dc6108c4565b503d610949565b61098590873d89116106665761065681836121df565b508661087c565b9094508581813d83116109b4575b6109a481836121df565b8101031261027157519386610824565b503d61099a565b3461027157600036600319011261027157602060405160648152f35b346102715760003660031901126102715760206040516103e88152f35b3461027157604036600319011261027157610a1a610a106120c6565b602435903361253d565b602060405160018152f35b346102715760003660031901126102715760405160009060045460018160011c9060018316928315610b22575b6020938484108114610b0c57838652908115610aec5750600114610a91575b610a8d84610a81818803826121df565b604051918291826120f2565b0390f35b600460009081529294507f8a35acfbc15ff81a39ae7d344fd709f28e8600b4aa8c65c6b64bfe7fe36bd19b5b828410610ad95750505081610a8d93610a819282010193610a71565b8054858501870152928501928101610abd565b60ff1916858501525050151560051b8201019150610a8181610a8d610a71565b634e487b7160e01b600052602260045260246000fd5b91607f1691610a52565b3461027157602036600319011261027157610b456120c6565b610b4d612362565b610b6c6006546001600160701b0391828216928260701c169160e01c90565b506040516370a0823160e01b815230600482015291926020836024817f00000000000000000000000000000000000000000000000000000000000000006001600160a01b03165afa92831561027d57600093611041575b506040516370a0823160e01b8152306004820152926020846024817f00000000000000000000000000000000000000000000000000000000000000006001600160a01b03165afa93841561027d5760009461100d575b5030600052600060205260406000205492610c59610c4d610c4d610c52610c40858b612602565b956002549384918a61227d565b612290565b978761227d565b9385151580611004575b15610fb0573015610f9757306000526000602052604060002054818110610f6f5790806000923084528360205203604083205580600254036002556040519081527fddf252ad1be2c89b69c2b068fc378daa952ba7f163c4a11628f55a4df523b3ef60203092a360405163a9059cbb60e01b81526001600160a01b0384166004820152602481018690526020818060448101038160007f00000000000000000000000000000000000000000000000000000000000000006001600160a01b03165af1801561027d57610f50575b5060405163a9059cbb60e01b81526001600160a01b0384166004820152602481018590526020818060448101038160007f00000000000000000000000000000000000000000000000000000000000000006001600160a01b03165af1801561027d57610f31575b506040516370a0823160e01b81523060048201526020816024817f00000000000000000000000000000000000000000000000000000000000000006001600160a01b03165afa90811561027d57600091610eff575b506040516370a0823160e01b8152306004820152906020826024817f00000000000000000000000000000000000000000000000000000000000000006001600160a01b03165afa91821561027d57600092610ec4575b5096610e519291604098612385565b610ea1575b83519083825282602083015260018060a01b0316907fdccd412f0b1252819cb1fd330b93224ca42612892bb3f4f789976e6d81936496853392a3600160055582519182526020820152f35b610ebc6006546001600160701b03808260701c16911661227d565b600955610e56565b929150966020833d602011610ef7575b81610ee1602093836121df565b8101031261027157915191969091906040610e42565b3d9150610ed4565b90506020813d602011610f29575b81610f1a602093836121df565b81010312610271575187610dec565b3d9150610f0d565b610f499060203d6020116106665761065681836121df565b5086610d97565b610f689060203d6020116106665761065681836121df565b5086610d30565b60405163391434e360e21b815230600482015260248101919091526044810191909152606490fd5b604051634b637e8f60e11b815260006004820152602490fd5b60405162461bcd60e51b815260206004820152602660248201527f444558506169723a20494e53554646494349454e545f4c49515549444954595f60448201526510955493915160d21b6064820152608490fd5b50841515610c63565b9093506020813d602011611039575b81611029602093836121df565b8101031261027157519285610c19565b3d915061101c565b9092506020813d60201161106d575b8161105d602093836121df565b8101031261027157519184610bc3565b3d9150611050565b34610271576000366003190112610271576020600954604051908152f35b34610271576020366003190112610271576001600160a01b036110b46120c6565b1660005260006020526020604060002054604051908152f35b3461027157602080600319360112610271576110e76120c6565b6110ef612362565b61110e6006546001600160701b0391828216928260701c169160e01c90565b506040516370a0823160e01b80825230600483015292936001600160a01b039390929186816024817f000000000000000000000000000000000000000000000000000000000000000089165afa91821561027d578791600093611350575b5060246040518097819382523060048301527f0000000000000000000000000000000000000000000000000000000000000000165afa93841561027d57600094611321575b506001600160701b0391828616956111c98784612219565b95848316936111d88583612219565b986111e38585612602565b95600254918215600014611227576112036111fe8d8d61227d565b612723565b6103e7198101116103f85760405163ec442f0560e01b815260006004820152602490fd5b90610c4d61123f61124693610c4d9c9e9c868f61227d565b938b61227d565b9081808210911802189889156112cd57906112678a61126c96959493612843565b612385565b6112af575b50604051918252838201527f4c209b5fc8ad50758f13e2e1088ba56a560dff690a1c6fef26394f4c03821c4f60403392a26001600555604051908152f35b6112c49060065490808260701c16911661227d565b60095584611271565b60405162461bcd60e51b8152600481018c9052602660248201527f444558506169723a20494e53554646494349454e545f4c49515549444954595f60448201526513525395115160d21b6064820152608490fd5b9093508581813d8311611349575b61133981836121df565b81010312610271575192866111b1565b503d61132f565b8281939294503d831161137a575b61136881836121df565b8101031261027157869051918861116c565b503d61135e565b34610271576000366003190112610271576020600854604051908152f35b34610271576000366003190112610271576020600754604051908152f35b34610271576040366003190112610271576113d66120c6565b506113df6120dc565b50611414337f00000000000000000000000000000000000000000000000000000000000000006001600160a01b031614612302565b005b34610271576000366003190112610271576020600b54604051908152f35b3461027157600036600319011261027157602060405160128152f35b34610271576060366003190112610271576114696120c6565b6114716120dc565b6001600160a01b038216600081815260016020908152604080832033845290915290205492604435929160001985106114b0575b50610a1a935061253d565b83851061151c5780156115035733156114ea57610a1a948491600052600160205260406000203360005260205203604060002055846114a5565b604051634a1406b160e11b815260006004820152602490fd5b60405163e602df0560e01b815260006004820152602490fd5b604051637dc7a0d960e11b81523360048201526024810186905260448101859052606490fd5b34610271576000366003190112610271576040516322b8969360e01b81523060048201526020816024817f00000000000000000000000000000000000000000000000000000000000000006001600160a01b03165afa801561027d576000906115b1575b602090604051908152f35b506020813d6020116115dc575b816115cb602093836121df565b8101031261027157602090516115a6565b3d91506115be565b34610271576000366003190112610271576020600254604051908152f35b346102715760403660031901126102715760043561161e6120dc565b9060018060a01b0380921661165f837f00000000000000000000000000000000000000000000000000000000000000001682148092811561046957506122bd565b61166a82151561213b565b1561178f57600654916001600160701b03808460701c1693165b602460206001600160701b038096169384151580611784575b6116a690612193565b6040516322b8969360e01b815230600482015292839182907f0000000000000000000000000000000000000000000000000000000000000000165afa92831561027d57849160009461174b575b50906116fe9161227d565b926103e894858502948086048714901517156103f85761171e9216612219565b9083039283116103f857611735926103ea9161227d565b600181018091116103f857602090604051908152f35b915092506020813d60201161177c575b81611768602093836121df565b8101031261027157519183906116fe6116f3565b3d915061175b565b50838716861061169d565b600654916001600160701b038084169360701c16611684565b34610271576000366003190112610271576040517f00000000000000000000000000000000000000000000000000000000000000006001600160a01b03168152602090f35b34610271576040366003190112610271576118066120c6565b602435903315611503576001600160a01b03169081156114ea57336000526001602052604060002082600052602052806040600020556040519081527f8c5be1e5ebec7d5bd14f71427d1e84f3dd0314c0f7b2291e5b200ac8c7c3b92560203392a3602060405160018152f35b3461027157600036600319011261027157606063ffffffff6118aa6006546001600160701b0391828216928260701c169160e01c90565b909291604051936001600160701b038092168552166020840152166040820152f35b346102715760003660031901126102715760405160009060035460018160011c9060018316928315611982575b6020938484108114610b0c57838652908115610aec575060011461192757610a8d84610a81818803826121df565b600360009081529294507fc2575a0e9e593c00f959f8c92f12db2869c3395a3b0502d05e2516446f71f85b5b82841061196f5750505081610a8d93610a819282010193610a71565b8054858501870152928501928101611953565b91607f16916118f9565b34610271576080366003190112610271576044356001600160a01b03811690036102715767ffffffffffffffff60643511610271573660236064350112156102715767ffffffffffffffff60643560040135116102715736602460643560040135606435010111610271576119ff612362565b60043515801580916120bb575b611a159061213b565b611a346006546001600160701b0391828216928260701c169160e01c90565b5090916001600160701b03831660043510806120a7575b611a5490612193565b6044356001600160a01b039081167f000000000000000000000000000000000000000000000000000000000000000090911614158061206d575b1561203257611fa9575b602435611f22575b60643560040135611e5b575b6040516370a0823160e01b81523060048201526020816024817f00000000000000000000000000000000000000000000000000000000000000006001600160a01b03165afa90811561027d57600091611e29575b506040516370a0823160e01b8152306004820152916020836024817f00000000000000000000000000000000000000000000000000000000000000006001600160a01b03165afa92831561027d57600093611df5575b50611b6c6004356001600160701b038616612219565b821115611ded57611b91611b8b6004356001600160701b038716612219565b83612219565b935b611ba86024356001600160701b038416612219565b841115611de557611bcd611bc76024356001600160701b038516612219565b85612219565b935b85159384158095611ddc575b611be490612226565b6040516322b8969360e01b81523060048201526020816024817f00000000000000000000000000000000000000000000000000000000000000006001600160a01b03165afa90811561027d57600091611daa575b50816103e88102046103e814821517156103f857611c63611c59828a61227d565b6103e88402612219565b6103e88402908482046103e814851517156103f857611c8f611c9592611c89858c61227d565b90612219565b9061227d565b611cb16001600160701b0387166001600160701b03871661227d565b90620f4240918281029281840414901517156103f85710611d7857611ce195611d57575b86611d35575b50612385565b60405191825260208201526004356040820152602435606082015260018060a01b0360443516907fd78ad95fa46c994b6551d0da85fc275fe613ce37657fb8d5e3d130840159d82260803392a36001600555005b6103e8611d45611d4e928961227d565b04600b546122b0565b600b5587611cdb565b611d706103e8611d67838b61227d565b04600a546122b0565b600a55611cd5565b60405162461bcd60e51b815260206004820152600a602482015269444558506169723a204b60b01b6044820152606490fd5b90506020813d602011611dd4575b81611dc5602093836121df565b81010312610271575188611c38565b3d9150611db8565b50851515611bdb565b600093611bcf565b600093611b93565b9092506020813d602011611e21575b81611e11602093836121df565b8101031261027157519184611b56565b3d9150611e04565b90506020813d602011611e53575b81611e44602093836121df565b81010312610271575183611b00565b3d9150611e37565b600080604051606435600401356024606435018237806064356004013581018381520390826044355af13d15611f1d573d67ffffffffffffffff8111611f075760405190611eb3601f8201601f1916602001836121df565b8152600060203d92013e5b611aac5760405162461bcd60e51b815260206004820152601860248201527f444558506169723a2043414c4c4241434b5f4641494c454400000000000000006044820152606490fd5b634e487b7160e01b600052604160045260246000fd5b611ebe565b60405163a9059cbb60e01b81526001600160a01b036044803582166004840152602480359084015260209183919082906000907f0000000000000000000000000000000000000000000000000000000000000000165af1801561027d57611f8a575b50611aa0565b611fa29060203d6020116106665761065681836121df565b5082611f84565b60405163a9059cbb60e01b81526001600160a01b0360448035821660048085019190915235602484015260209183919082906000907f0000000000000000000000000000000000000000000000000000000000000000165af1801561027d57612013575b50611a98565b61202b9060203d6020116106665761065681836121df565b508261200d565b60405162461bcd60e51b8152602060048201526013602482015272444558506169723a20494e56414c49445f544f60681b6044820152606490fd5b506044356001600160a01b039081167f00000000000000000000000000000000000000000000000000000000000000009091161415611a8e565b506001600160701b03821660243510611a4b565b506024351515611a0c565b600435906001600160a01b038216820361027157565b602435906001600160a01b038216820361027157565b6020808252825181830181905290939260005b82811061212757505060409293506000838284010152601f8019910116010190565b818101860151848201604001528501612105565b1561214257565b60405162461bcd60e51b815260206004820152602360248201527f444558506169723a20494e53554646494349454e545f4f55545055545f414d4f60448201526215539560ea1b6064820152608490fd5b1561219a57565b60405162461bcd60e51b815260206004820152601f60248201527f444558506169723a20494e53554646494349454e545f4c4951554944495459006044820152606490fd5b90601f8019910116810190811067ffffffffffffffff821117611f0757604052565b90816020910312610271575180151581036102715790565b919082039182116103f857565b1561222d57565b60405162461bcd60e51b815260206004820152602260248201527f444558506169723a20494e53554646494349454e545f494e5055545f414d4f55604482015261139560f21b6064820152608490fd5b818102929181159184041417156103f857565b811561229a570490565b634e487b7160e01b600052601260045260246000fd5b919082018092116103f857565b156122c457565b60405162461bcd60e51b81526020600482015260166024820152752222ac2830b4b91d1024a72b20a624a22faa27a5a2a760511b6044820152606490fd5b1561230957565b60405162461bcd60e51b81526020600482015260126024820152712222ac2830b4b91d102327a92124a22222a760711b6044820152606490fd5b9081602091031261027157516001600160a01b03811681036102715790565b600260055414612373576002600555565b604051633ee5aeb560e01b8152600490fd5b9092916001600160701b03928383111580612533575b156124fa5763ffffffff60065460e01c814216038181116103f85716801515806124ef575b806124e4575b612437575b505050607092831b6dffffffffffffffffffffffffffff60701b169082169081174260e01b6001600160e01b03191617600681905560408051928352931c90911660208201527f1c411e9a96e071241c2f21f7726b17ae89e3cab4c78be50e062b03a9fffbbad19190a1565b9093919492828516946001600160701b0360701b809160701b1690600160701b978783048914881517156103f85761248661247e866124798985168097612290565b61227d565b6007546122b0565b60075560701b169681880414901517156103f8576124d76124cf84936124796040987f1c411e9a96e071241c2f21f7726b17ae89e3cab4c78be50e062b03a9fffbbad19a612290565b6008546122b0565b60085592948194506123cb565b5084821615156123c6565b5084831615156123c0565b60405162461bcd60e51b8152602060048201526011602482015270444558506169723a204f564552464c4f5760781b6044820152606490fd5b508385111561239b565b916001600160a01b03808416928315610f9757169283156125e957600090838252816020526040822054908382106125b7575091604082827fddf252ad1be2c89b69c2b068fc378daa952ba7f163c4a11628f55a4df523b3ef958760209652828652038282205586815220818154019055604051908152a3565b60405163391434e360e21b81526001600160a01b03919091166004820152602481019190915260448101839052606490fd5b60405163ec442f0560e01b815260006004820152602490fd5b604051622fcfcb60e31b8152919291906001600160a01b036020836004817f000000000000000000000000000000000000000000000000000000000000000085165afa92831561027d57600093612702575b50821615159360095491856000146126f15782612672575b50505050565b6111fe61268f91612695936001600160701b03809116911661227d565b91612723565b908181116126a4575b8061266c565b6126b4600254611c8f8484612219565b906005810290808204600514901517156103f8576126d5926103ea916122b0565b806126e1575b8061269e565b6126ea91612843565b38806126db565b505090506126fb57565b6000600955565b61271c91935060203d60201161075c5761074e81836121df565b9138612654565b60018082111561283f576127e0908083600160801b81101561282d575b80600160401b6004921015612820575b640100000000811015612813575b62010000811015612806575b6101008110156127fa575b60108110156127ee575b10156127e7575b600302811c6127958185612290565b01811c6127a28185612290565b01811c6127af8185612290565b01811c6127bc8185612290565b01811c6127c98185612290565b01811c6127d68185612290565b01901c8092612290565b8111900390565b811b612786565b811c9160021b9161277f565b60081c91811b91612775565b60101c9160081b9161276a565b60201c9160101b9161275e565b60401c9160201b91612750565b50600160401b9050608084901c612740565b5090565b6001600160a01b03169081156125e9577fddf252ad1be2c89b69c2b068fc378daa952ba7f163c4a11628f55a4df523b3ef6020826128856000946002546122b0565b60025584845283825260408420818154019055604051908152a356fea2646970667358221220ddff2b054133643630a267386e55e0c7cb810c0aaee0e514a3176a2ea8857d5664736f6c63430008160033",
  "linkReferences": {},
  "deployedLinkReferences": {}
}