{
  "_format": "hh-sol-artifact-1",
  "contractName": "CrossChainRouteOptimizer",
  "sourceName": "contracts/hypermesh/CrossChainRouteOptimizer.sol",
  "abi": [
    {
      "inputs": [
        {
          "internalType": "address",
          "name": "owner",
          "type": "address"
        },
        {
          "internalType": "address payable",
          "name": "_economicsOracle",
          "type": "address"
        }
      ],
      "stateMutability": "nonpayable",
      "type": "constructor"
    },
    {
      "inputs": [],
      "name": "EnforcedPause",
      "type": "error"
    },
    {
      "inputs": [],
      "name": "ExpectedPause",
      "type": "error"
    },
    {
      "inputs": [
        {
          "internalType": "address",
          "name": "owner",
          "type": "address"
        }
      ],
      "name": "OwnableInvalidOwner",
      "type": "error"
    },
    {
      "inputs": [
        {
          "internalType": "address",
          "name": "account",
          "type": "address"
        }
      ],
      "name": "OwnableUnauthorizedAccount",
      "type": "error"
    },
    {
      "inputs": [],
      "name": "ReentrancyGuardReentrantCall",
      "type": "error"
    },
    {
      "anonymous": false,
      "inputs": [
        {
          "indexed": true,
          "internalType": "address",
          "name": "network",
          "type": "address"
        },
        {
          "indexed": false,
          "internalType": "string",
          "name": "reason",
          "type": "string"
        }
      ],
      "name": "EmergencyRerouteActivated",
      "type": "event"
    },
    {
      "anonymous": false,
      "inputs": [
        {
          "indexed": true,
          "internalType": "address",
          "name": "network",
          "type": "address"
        },
        {
          "indexed": false,
          "internalType": "uint256",
          "name": "successRate",
          "type": "uint256"
        },
        {
          "indexed": false,
          "internalType": "uint256",
          "name": "averageLatency",
          "type": "uint256"
        }
      ],
      "name": "NetworkMetricsUpdated",
      "type": "event"
    },
    {
      "anonymous": false,
      "inputs": [
        {
          "indexed": true,
          "internalType": "address",
          "name": "previousOwner",
          "type": "address"
        },
        {
          "indexed": true,
          "internalType": "address",
          "name": "newOwner",
          "type": "address"
        }
      ],
      "name": "OwnershipTransferred",
      "type": "event"
    },
    {
      "anonymous": false,
      "inputs": [
        {
          "indexed": false,
          "internalType": "address",
          "name": "account",
          "type": "address"
        }
      ],
      "name": "Paused",
      "type": "event"
    },
    {
      "anonymous": false,
      "inputs": [
        {
          "indexed": true,
          "internalType": "address",
          "name": "network",
          "type": "address"
        },
        {
          "indexed": false,
          "internalType": "uint256",
          "name": "currentLoad",
          "type": "uint256"
        },
        {
          "indexed": false,
          "internalType": "uint256",
          "name": "backoffDuration",
          "type": "uint256"
        }
      ],
      "name": "RateLimitTriggered",
      "type": "event"
    },
    {
      "anonymous": false,
      "inputs": [
        {
          "indexed": true,
          "internalType": "bytes32",
          "name": "requestId",
          "type": "bytes32"
        },
        {
          "indexed": false,
          "internalType": "address[]",
          "name": "networks",
          "type": "address[]"
        },
        {
          "indexed": false,
          "internalType": "uint256",
          "name": "totalCost",
          "type": "uint256"
        },
        {
          "indexed": false,
          "internalType": "uint256",
          "name": "totalLatency",
          "type": "uint256"
        }
      ],
      "name": "RouteCalculated",
      "type": "event"
    },
    {
      "anonymous": false,
      "inputs": [
        {
          "indexed": true,
          "internalType": "bytes32",
          "name": "requestId",
          "type": "bytes32"
        },
        {
          "indexed": false,
          "internalType": "bool",
          "name": "success",
          "type": "bool"
        },
        {
          "indexed": false,
          "internalType": "uint256",
          "name": "actualCost",
          "type": "uint256"
        },
        {
          "indexed": false,
          "internalType": "uint256",
          "name": "actualLatency",
          "type": "uint256"
        }
      ],
      "name": "RouteExecuted",
      "type": "event"
    },
    {
      "anonymous": false,
      "inputs": [
        {
          "indexed": true,
          "internalType": "bytes32",
          "name": "requestId",
          "type": "bytes32"
        },
        {
          "indexed": false,
          "internalType": "address",
          "name": "sender",
          "type": "address"
        },
        {
          "indexed": false,
          "internalType": "address",
          "name": "targetNetwork",
          "type": "address"
        },
        {
          "indexed": false,
          "internalType": "uint256",
          "name": "amount",
          "type": "uint256"
        }
      ],
      "name": "RouteRequested",
      "type": "event"
    },
    {
      "anonymous": false,
      "inputs": [
        {
          "indexed": true,
          "internalType": "bytes32",
          "name": "requestId",
          "type": "bytes32"
        },
        {
          "indexed": false,
          "internalType": "address",
          "name": "fromNetwork",
          "type": "address"
        },
        {
          "indexed": false,
          "internalType": "address",
          "name": "toNetwork",
          "type": "address"
        },
        {
          "indexed": false,
          "internalType": "string",
          "name": "reason",
          "type": "string"
        }
      ],
      "name": "RouteRerouted",
      "type": "event"
    },
    {
      "anonymous": false,
      "inputs": [
        {
          "indexed": false,
          "internalType": "enum CrossChainRouteOptimizer.ThrottleMode",
          "name": "oldMode",
          "type": "uint8"
        },
        {
          "indexed": false,
          "internalType": "enum CrossChainRouteOptimizer.ThrottleMode",
          "name": "newMode",
          "type": "uint8"
        },
        {
          "indexed": false,
          "internalType": "string",
          "name": "reason",
          "type": "string"
        }
      ],
      "name": "ThrottleModeChanged",
      "type": "event"
    },
    {
      "anonymous": false,
      "inputs": [
        {
          "indexed": false,
          "internalType": "address",
          "name": "account",
          "type": "address"
        }
      ],
      "name": "Unpaused",
      "type": "event"
    },
    {
      "inputs": [
        {
          "internalType": "uint256",
          "name": "",
          "type": "uint256"
        }
      ],
      "name": "activeNetworks",
      "outputs": [
        {
          "internalType": "address",
          "name": "",
          "type": "address"
        }
      ],
      "stateMutability": "view",
      "type": "function"
    },
    {
      "inputs": [
        {
          "internalType": "address",
          "name": "network",
          "type": "address"
        }
      ],
      "name": "addSupportedNetwork",
      "outputs": [],
      "stateMutability": "nonpayable",
      "type": "function"
    },
    {
      "inputs": [
        {
          "internalType": "bytes32",
          "name": "",
          "type": "bytes32"
        }
      ],
      "name": "calculatedRoutes",
      "outputs": [
        {
          "internalType": "uint256",
          "name": "totalCost",
          "type": "uint256"
        },
        {
          "internalType": "uint256",
          "name": "totalLatency",
          "type": "uint256"
        },
        {
          "internalType": "uint256",
          "name": "qualityScore",
          "type": "uint256"
        },
        {
          "internalType": "uint256",
          "name": "reliabilityScore",
          "type": "uint256"
        },
        {
          "internalType": "bool",
          "name": "isActive",
          "type": "bool"
        }
      ],
      "stateMutability": "view",
      "type": "function"
    },
    {
      "inputs": [],
      "name": "currentThrottleMode",
      "outputs": [
        {
          "internalType": "enum CrossChainRouteOptimizer.ThrottleMode",
          "name": "",
          "type": "uint8"
        }
      ],
      "stateMutability": "view",
      "type": "function"
    },
    {
      "inputs": [],
      "name": "economicsOracle",
      "outputs": [
        {
          "internalType": "contract DynamicEconomicsOracle",
          "name": "",
          "type": "address"
        }
      ],
      "stateMutability": "view",
      "type": "function"
    },
    {
      "inputs": [
        {
          "internalType": "address",
          "name": "network",
          "type": "address"
        },
        {
          "internalType": "string",
          "name": "reason",
          "type": "string"
        }
      ],
      "name": "emergencyPauseNetwork",
      "outputs": [],
      "stateMutability": "nonpayable",
      "type": "function"
    },
    {
      "inputs": [
        {
          "internalType": "bytes32",
          "name": "requestId",
          "type": "bytes32"
        }
      ],
      "name": "executeRoute",
      "outputs": [],
      "stateMutability": "nonpayable",
      "type": "function"
    },
    {
      "inputs": [],
      "name": "failedRoutes",
      "outputs": [
        {
          "internalType": "uint256",
          "name": "",
          "type": "uint256"
        }
      ],
      "stateMutability": "view",
      "type": "function"
    },
    {
      "inputs": [
        {
          "internalType": "bytes32",
          "name": "requestId",
          "type": "bytes32"
        }
      ],
      "name": "getCalculatedRoute",
      "outputs": [
        {
          "components": [
            {
              "internalType": "address[]",
              "name": "networks",
              "type": "address[]"
            },
            {
              "internalType": "uint256[]",
              "name": "expectedCosts",
              "type": "uint256[]"
            },
            {
              "internalType": "uint256[]",
              "name": "expectedLatencies",
              "type": "uint256[]"
            },
            {
              "internalType": "uint256",
              "name": "totalCost",
              "type": "uint256"
            },
            {
              "internalType": "uint256",
              "name": "totalLatency",
              "type": "uint256"
            },
            {
              "internalType": "uint256",
              "name": "qualityScore",
              "type": "uint256"
            },
            {
              "internalType": "uint256",
              "name": "reliabilityScore",
              "type": "uint256"
            },
            {
              "internalType": "bool",
              "name": "isActive",
              "type": "bool"
            }
          ],
          "internalType": "struct CrossChainRouteOptimizer.RoutePath",
          "name": "",
          "type": "tuple"
        }
      ],
      "stateMutability": "view",
      "type": "function"
    },
    {
      "inputs": [
        {
          "internalType": "address",
          "name": "network",
          "type": "address"
        }
      ],
      "name": "getNetworkMetrics",
      "outputs": [
        {
          "components": [
            {
              "internalType": "uint256",
              "name": "successRate",
              "type": "uint256"
            },
            {
              "internalType": "uint256",
              "name": "averageLatency",
              "type": "uint256"
            },
            {
              "internalType": "uint256",
              "name": "currentLoad",
              "type": "uint256"
            },
            {
              "internalType": "uint256",
              "name": "capacityUtilization",
              "type": "uint256"
            },
            {
              "internalType": "uint256",
              "name": "lastFailureTime",
              "type": "uint256"
            },
            {
              "internalType": "uint256",
              "name": "consecutiveFailures",
              "type": "uint256"
            },
            {
              "internalType": "uint256",
              "name": "totalTransactions",
              "type": "uint256"
            },
            {
              "internalType": "uint256",
              "name": "lastUpdate",
              "type": "uint256"
            }
          ],
          "internalType": "struct CrossChainRouteOptimizer.NetworkMetrics",
          "name": "",
          "type": "tuple"
        }
      ],
      "stateMutability": "view",
      "type": "function"
    },
    {
      "inputs": [
        {
          "internalType": "bytes32",
          "name": "requestId",
          "type": "bytes32"
        }
      ],
      "name": "getRouteRequest",
      "outputs": [
        {
          "components": [
            {
              "internalType": "bytes32",
              "name": "requestId",
              "type": "bytes32"
            },
            {
              "internalType": "address",
              "name": "sender",
              "type": "address"
            },
            {
              "internalType": "address",
              "name": "targetNetwork",
              "type": "address"
            },
            {
              "internalType": "uint256",
              "name": "amount",
              "type": "uint256"
            },
            {
              "internalType": "uint256",
              "name": "maxCost",
              "type": "uint256"
            },
            {
              "internalType": "uint256",
              "name": "maxLatency",
              "type": "uint256"
            },
            {
              "internalType": "uint256",
              "name": "priority",
              "type": "uint256"
            },
            {
              "internalType": "uint256",
              "name": "timestamp",
              "type": "uint256"
            },
            {
              "internalType": "enum CrossChainRouteOptimizer.RouteStatus",
              "name": "status",
              "type": "uint8"
            }
          ],
          "internalType": "struct CrossChainRouteOptimizer.RouteRequest",
          "name": "",
          "type": "tuple"
        }
      ],
      "stateMutability": "view",
      "type": "function"
    },
    {
      "inputs": [],
      "name": "getSystemStats",
      "outputs": [
        {
          "internalType": "uint256",
          "name": "totalRequestCount",
          "type": "uint256"
        },
        {
          "internalType": "uint256",
          "name": "successfulRouteCount",
          "type": "uint256"
        },
        {
          "internalType": "uint256",
          "name": "failedRouteCount",
          "type": "uint256"
        },
        {
          "internalType": "uint256",
          "name": "rerouteCount",
          "type": "uint256"
        },
        {
          "internalType": "uint256",
          "name": "activeNetworkCount",
          "type": "uint256"
        },
        {
          "internalType": "enum CrossChainRouteOptimizer.ThrottleMode",
          "name": "throttleMode",
          "type": "uint8"
        }
      ],
      "stateMutability": "view",
      "type": "function"
    },
    {
      "inputs": [],
      "name": "lastThrottleUpdate",
      "outputs": [
        {
          "internalType": "uint256",
          "name": "",
          "type": "uint256"
        }
      ],
      "stateMutability": "view",
      "type": "function"
    },
    {
      "inputs": [
        {
          "internalType": "address",
          "name": "",
          "type": "address"
        }
      ],
      "name": "networkMetrics",
      "outputs": [
        {
          "internalType": "uint256",
          "name": "successRate",
          "type": "uint256"
        },
        {
          "internalType": "uint256",
          "name": "averageLatency",
          "type": "uint256"
        },
        {
          "internalType": "uint256",
          "name": "currentLoad",
          "type": "uint256"
        },
        {
          "internalType": "uint256",
          "name": "capacityUtilization",
          "type": "uint256"
        },
        {
          "internalType": "uint256",
          "name": "lastFailureTime",
          "type": "uint256"
        },
        {
          "internalType": "uint256",
          "name": "consecutiveFailures",
          "type": "uint256"
        },
        {
          "internalType": "uint256",
          "name": "totalTransactions",
          "type": "uint256"
        },
        {
          "internalType": "uint256",
          "name": "lastUpdate",
          "type": "uint256"
        }
      ],
      "stateMutability": "view",
      "type": "function"
    },
    {
      "inputs": [],
      "name": "owner",
      "outputs": [
        {
          "internalType": "address",
          "name": "",
          "type": "address"
        }
      ],
      "stateMutability": "view",
      "type": "function"
    },
    {
      "inputs": [],
      "name": "paused",
      "outputs": [
        {
          "internalType": "bool",
          "name": "",
          "type": "bool"
        }
      ],
      "stateMutability": "view",
      "type": "function"
    },
    {
      "inputs": [
        {
          "internalType": "uint256",
          "name": "",
          "type": "uint256"
        }
      ],
      "name": "pendingRequests",
      "outputs": [
        {
          "internalType": "bytes32",
          "name": "",
          "type": "bytes32"
        }
      ],
      "stateMutability": "view",
      "type": "function"
    },
    {
      "inputs": [
        {
          "internalType": "address",
          "name": "",
          "type": "address"
        }
      ],
      "name": "rateLimits",
      "outputs": [
        {
          "internalType": "uint256",
          "name": "currentCount",
          "type": "uint256"
        },
        {
          "internalType": "uint256",
          "name": "maxCount",
          "type": "uint256"
        },
        {
          "internalType": "uint256",
          "name": "windowStart",
          "type": "uint256"
        },
        {
          "internalType": "uint256",
          "name": "windowDuration",
          "type": "uint256"
        },
        {
          "internalType": "uint256",
          "name": "backoffUntil",
          "type": "uint256"
        },
        {
          "internalType": "bool",
          "name": "isThrottled",
          "type": "bool"
        }
      ],
      "stateMutability": "view",
      "type": "function"
    },
    {
      "inputs": [],
      "name": "renounceOwnership",
      "outputs": [],
      "stateMutability": "nonpayable",
      "type": "function"
    },
    {
      "inputs": [
        {
          "internalType": "address",
          "name": "targetNetwork",
          "type": "address"
        },
        {
          "internalType": "uint256",
          "name": "amount",
          "type": "uint256"
        },
        {
          "internalType": "uint256",
          "name": "maxCost",
          "type": "uint256"
        },
        {
          "internalType": "uint256",
          "name": "maxLatency",
          "type": "uint256"
        },
        {
          "internalType": "uint256",
          "name": "priority",
          "type": "uint256"
        }
      ],
      "name": "requestRoute",
      "outputs": [
        {
          "internalType": "bytes32",
          "name": "requestId",
          "type": "bytes32"
        }
      ],
      "stateMutability": "nonpayable",
      "type": "function"
    },
    {
      "inputs": [],
      "name": "reroutedTransactions",
      "outputs": [
        {
          "internalType": "uint256",
          "name": "",
          "type": "uint256"
        }
      ],
      "stateMutability": "view",
      "type": "function"
    },
    {
      "inputs": [],
      "name": "routeConfig",
      "outputs": [
        {
          "internalType": "uint256",
          "name": "maxRetries",
          "type": "uint256"
        },
        {
          "internalType": "uint256",
          "name": "timeoutWindow",
          "type": "uint256"
        },
        {
          "internalType": "uint256",
          "name": "costThresholdPercent",
          "type": "uint256"
        },
        {
          "internalType": "uint256",
          "name": "latencyThresholdMs",
          "type": "uint256"
        },
        {
          "internalType": "uint256",
          "name": "minQualityScore",
          "type": "uint256"
        },
        {
          "internalType": "uint256",
          "name": "emergencyRerouteThreshold",
          "type": "uint256"
        },
        {
          "internalType": "bool",
          "name": "adaptiveRoutingEnabled",
          "type": "bool"
        }
      ],
      "stateMutability": "view",
      "type": "function"
    },
    {
      "inputs": [
        {
          "internalType": "bytes32",
          "name": "",
          "type": "bytes32"
        }
      ],
      "name": "routeRequests",
      "outputs": [
        {
          "internalType": "bytes32",
          "name": "requestId",
          "type": "bytes32"
        },
        {
          "internalType": "address",
          "name": "sender",
          "type": "address"
        },
        {
          "internalType": "address",
          "name": "targetNetwork",
          "type": "address"
        },
        {
          "internalType": "uint256",
          "name": "amount",
          "type": "uint256"
        },
        {
          "internalType": "uint256",
          "name": "maxCost",
          "type": "uint256"
        },
        {
          "internalType": "uint256",
          "name": "maxLatency",
          "type": "uint256"
        },
        {
          "internalType": "uint256",
          "name": "priority",
          "type": "uint256"
        },
        {
          "internalType": "uint256",
          "name": "timestamp",
          "type": "uint256"
        },
        {
          "internalType": "enum CrossChainRouteOptimizer.RouteStatus",
          "name": "status",
          "type": "uint8"
        }
      ],
      "stateMutability": "view",
      "type": "function"
    },
    {
      "inputs": [
        {
          "internalType": "enum CrossChainRouteOptimizer.ThrottleMode",
          "name": "mode",
          "type": "uint8"
        },
        {
          "internalType": "string",
          "name": "reason",
          "type": "string"
        }
      ],
      "name": "setThrottleMode",
      "outputs": [],
      "stateMutability": "nonpayable",
      "type": "function"
    },
    {
      "inputs": [],
      "name": "successfulRoutes",
      "outputs": [
        {
          "internalType": "uint256",
          "name": "",
          "type": "uint256"
        }
      ],
      "stateMutability": "view",
      "type": "function"
    },
    {
      "inputs": [
        {
          "internalType": "address",
          "name": "",
          "type": "address"
        }
      ],
      "name": "supportedNetworks",
      "outputs": [
        {
          "internalType": "bool",
          "name": "",
          "type": "bool"
        }
      ],
      "stateMutability": "view",
      "type": "function"
    },
    {
      "inputs": [],
      "name": "totalRequests",
      "outputs": [
        {
          "internalType": "uint256",
          "name": "",
          "type": "uint256"
        }
      ],
      "stateMutability": "view",
      "type": "function"
    },
    {
      "inputs": [
        {
          "internalType": "address",
          "name": "newOwner",
          "type": "address"
        }
      ],
      "name": "transferOwnership",
      "outputs": [],
      "stateMutability": "nonpayable",
      "type": "function"
    },
    {
      "inputs": [
        {
          "components": [
            {
              "internalType": "uint256",
              "name": "maxRetries",
              "type": "uint256"
            },
            {
              "internalType": "uint256",
              "name": "timeoutWindow",
              "type": "uint256"
            },
            {
              "internalType": "uint256",
              "name": "costThresholdPercent",
              "type": "uint256"
            },
            {
              "internalType": "uint256",
              "name": "latencyThresholdMs",
              "type": "uint256"
            },
            {
              "internalType": "uint256",
              "name": "minQualityScore",
              "type": "uint256"
            },
            {
              "internalType": "uint256",
              "name": "emergencyRerouteThreshold",
              "type": "uint256"
            },
            {
              "internalType": "bool",
              "name": "adaptiveRoutingEnabled",
              "type": "bool"
            }
          ],
          "internalType": "struct CrossChainRouteOptimizer.RouteConfig",
          "name": "newConfig",
          "type": "tuple"
        }
      ],
      "name": "updateRouteConfig",
      "outputs": [],
      "stateMutability": "nonpayable",
      "type": "function"
    }
  ],
  "bytecode": "0x608034620001705762002bdf906001600160401b03601f38849003908101601f191683019082821184831017620001755780849160409687948552833981010312620001705781516001600160a01b0380821693909184900362000170576020015190808216809203620001705783156200015857600080546001600160a01b03198082168717835591959192167f8be0079c531659141344cd1fd0a4f28419497f9722a3daafe3b4186f6b6457e08680a360018055600a541617600a5582519160e08301918383109083111762000144575082526003815261012c90816020820152609683820152600160c06175309283606082015284608082015260c860a082015201526003805581600455609660055560065560075560c860085560ff196001816009541617600955601654166016554260175551612a5390816200018c8239f35b634e487b7160e01b81526041600452602490fd5b8451631e4fbdf760e01b815260006004820152602490fd5b600080fd5b634e487b7160e01b600052604160045260246000fdfe6040608081526004908136101561001557600080fd5b60009160e0908335821c918262bfca6d146110875782630a86f7171461105d5782631e9c47c61461101b5782633b5f404a14610f205782633c652a9a14610ee65782634b9245c114610eba578263508941b014610e9a5782635751538914610e465782635c975abb14610e215782636c59a73814610c47578263715018a614610bea5782637688c6cc14610a585782637a14c7d2146109e55782637bfbedcd146109c55782638aea61dc146109a55782638da5cb5b1461097c578263a39274ff146108ac578263a3c304e314610884578263a78cbc6c14610801578263a9634938146107a7578263aa1b778a14610768578263aabb559514610699578263b0e7c494146105ff578263d1ce59a7146105a9578263d3b2880b1461028a57508163d4c5cb4b1461026b578163dd746afc14610210578163f2fde38b14610185575063fd696b2b1461016457600080fd5b346101815781600319360112610181576020906013549051908152f35b5080fd5b90503461020c57602036600319011261020c576101a06111ee565b906101a9611dcf565b6001600160a01b039182169283156101f657505082546001600160a01b0319811683178455167f8be0079c531659141344cd1fd0a4f28419497f9722a3daafe3b4186f6b6457e08380a380f35b51631e4fbdf760e01b8152908101849052602490fd5b8280fd5b9190503461020c57602036600319011261020c578060a09383358152600f602052206003810154928101549160058201549060ff60076006850154940154169381519586526020860152840152606083015215156080820152f35b5050346101815781600319360112610181576020906015549051908152f35b8385913461020c5760a036600319011261020c576102a66111ee565b93602490813591608435956102b9611dfb565b60ff600254166105995760018060a01b039485891695868352602099600e8b5260ff898520541615610557578615610524576103e88a116104ef576102fd81611e31565b6104b6578a906012548a5190838201923360601b84526001600160601b03199060601b166034830152896048830152426068830152608882015260888152610344816112d5565b519020998a938a805194610357866112f1565b868652848601338152828701908d825260608801928d84526080890194604435865260a08a0196606435885260c08b019889528a0198428a526101008b019b8d8d528d52600b90528b20985189558060018a01925116916001600160601b0360a01b928382541617905560028901925116908254161790555160038601555188850155516005840155516006830155516007820155600801905160078110156104a45760ff8019835416911617905560115492600160401b8410156104945750505084927fab3b2826270fcad3ae44c953e3316f02d64872b63e13cbd518f2e826cb0306cf9261044f836001606095016011556111b7565b81549060031b9087821b91600019901b191617905561046f6012546113c0565b60125561047b85611f13565b8551913383528883015285820152a26001805551908152f35b634e487b7160e01b825260419052fd5b5050634e487b7160e01b815260218352fd5b885162461bcd60e51b81528087018c90526014818701527313995d1ddbdc9ac81c985d19481b1a5b5a5d195960621b6044820152606490fd5b885162461bcd60e51b81528087018c90526010818701526f496e76616c6964207072696f7269747960801b6044820152606490fd5b885162461bcd60e51b81528087018c9052600e818701526d125b9d985b1a5908185b5bdd5b9d60921b6044820152606490fd5b885162461bcd60e51b81528087018c9052601a818701527f556e737570706f7274656420746172676574206e6574776f726b0000000000006044820152606490fd5b855163d93c066560e01b81528390fd5b5050503461018157816003193601126101815760c0906105fd6012549160135490601454601554906010549260ff6016541694815197885260208801528601526060850152608084015260a083019061125b565bf35b9091503461069557602036600319011261069557906105fd91836101209583358152600b602052209081549460018060a01b03938460018501541694600285015416906003850154908501549060058601549260068701549460ff600860078a0154990154169881519b8c5260208c01528a01526060890152608088015260a087015260c0860152840152610100830190611238565b8380fd5b508383346101815780600319360112610181576106b46111ee565b60243567ffffffffffffffff8111610695576106d39036908601611137565b90916106dd611dcf565b6001600160a01b0316808552600e602052838520805460ff191690559242620151808101908110610755579061074f918697867e21909dbd80a433460c1271e4e863a51fbe7447fcacdf39d927542ce1e70c92979852600c602052828920015551928392602084526020840191611281565b0390a280f35b634e487b7160e01b865260118752602486fd5b505050346101815760203660031901126101815760209160ff9082906001600160a01b036107946111ee565b168152600e855220541690519015158152f35b8492503461020c57366003190112610181576107c1611dcf565b8035600355602435905560443560055560643560065560843560075560a43560085560c4358015158091036101815760ff80196009541691161760095580f35b90915034610695576020366003190112610695576101009383906001600160a01b0361082b6111ee565b168152600d602052208054936001820154936002830154906003840154908401549160058501549360076006870154960154978151998a5260208a01528801526060870152608086015260a085015260c0840152820152f35b505050346101815781600319360112610181576020906105fd60ff601654169151809261125b565b9091503461069557602036600319011261069557926105fd916101209461091c85848151946108da866112f1565b81865281602087015281838701528160608701528160808701528160a08701528160c08701528185870152610100968780970152358152600b60205220611d47565b9085519582518752602083015160018060a01b038091166020890152818401511690870152606082015160608701526080820151608087015260a082015160a087015260c082015160c08701528082015190860152015190830190611238565b50505034610181578160031936011261018157905490516001600160a01b039091168152602090f35b505050346101815781600319360112610181576020906012549051908152f35b505050346101815781600319360112610181576020906017549051908152f35b8482853461020c57602036600319011261020c5760c09281906001600160a01b03610a0e6111ee565b168152600c6020522080549260018201549260028301549060ff600560038601549486015495015416948151968752602087015285015260608401526080830152151560a0820152f35b849184346106955760209081600319360112610be657918385610a79611d07565b5082358152600f845284812091855192610a92846112a2565b8651815480825282855287852088830191865b818110610bc95750505081610abb91038261132a565b8452600195610acc6001830161134c565b90808601918252610adf6002840161134c565b98808701998a5260038401549760608801988952840154916080880192835260058501549360a0890194855260ff600760068801549760c08c0198895201541697878a01981515895283519b8c9a848c526101208c01905194806101406101009e8f838201528851809552019601935b828110610bad57505050505091610b798b9c92610b8a94518d601f19948582850301910152611204565b9151908b83030160608c0152611204565b965160808901525160a08801525160c08701525190850152511515908301520390f35b84516001600160a01b0316875295810195938101938301610b4f565b82546001600160a01b03168452928a019260019283019201610aa5565b8480fd5b8434610c445780600319360112610c4457610c03611dcf565b80546001600160a01b03198116825581906001600160a01b03167f8be0079c531659141344cd1fd0a4f28419497f9722a3daafe3b4186f6b6457e08280a380f35b80fd5b8385913461020c5760208060031936011261069557610c646111ee565b91610c6d611dcf565b6001600160a01b03928316808652600e83528486205490939060ff16610dde57838652600e8352848620805460ff19166001179055601054600160401b811015610dcb57916005949391610ccc846001610dc89a9b960160105561116a565b819291549060031b9187831b921b1916179055600788875192610cee846112a2565b6103e88452848401611388815289850183815260608601848152608087019185835260a08801938685528d60c08a01968888528a01974289528d8152600d8c5220985189555160018901555160028801555160038701555187860155518885015551600684015551910155845194610d65866112d5565b87865281860160648152818701904282526060880192610e108452600c60808a01958c875260a08b01988d8a528d52528a2097518855516001880155516002870155516003860155519084015551151591019060ff801983541691151516179055565b80f35b634e487b7160e01b875260418852602487fd5b845162461bcd60e51b8152808801849052601960248201527f4e6574776f726b20616c726561647920737570706f72746564000000000000006044820152606490fd5b5050503461018157816003193601126101815760209060ff6002541690519015158152f35b90838534610c445780600319360112610c445750600354915490600554600654600754916008549360ff6009541695815197885260208801528601526060850152608084015260a0830152151560c0820152f35b505050346101815781600319360112610181576020906014549051908152f35b84823461018157602036600319011261018157610edf90610ed9611dfb565b356113e5565b6001805580f35b5090503461020c57602036600319011261020c573591601154831015610c445750610f126020926111b7565b91905490519160031b1c8152f35b915034610695576020366003190112610695578261010094610f406111ee565b81858451610f4d816112a2565b82815282602082015282868201528260608201528260808201528260a08201528260c0820152015260018060a01b03168152600d60205220835191610f91836112a2565b8154948584526001830154916020850192835260028401549180860192835260038501549160608701928352850154926080870193845260058601549460a0880195865288600760068901549860c08b01998a52015498019788528251998a525160208a015251908801525160608701525160808601525160a08501525160c08401525190820152f35b5090503461020c57602036600319011261020c573591601054831015610c44575061104760209261116a565b905491519160018060a01b039160031b1c168152f35b50505034610181578160031936011261018157600a5490516001600160a01b039091168152602090f35b5090503461020c578160031936011261020c578035818110156106955760243567ffffffffffffffff8111610be6577f8823f56411f8318cc1bdd46973aa666e15348de1119bdd6087f29cd4321235529360606110ed61111a9561113194369101611137565b9190926110f8611dcf565b61112460ff601654169661110b81611268565b4260175582519889809961125b565b602088019061125b565b8501526060840191611281565b0390a180f35b9181601f840112156111655782359167ffffffffffffffff8311611165576020838186019501011161116557565b600080fd5b6010548110156111a15760106000527f1b6847dc741a1b0cd08d278845f9d819d87b734759afb55fe2de5cb82a9ae6720190600090565b634e487b7160e01b600052603260045260246000fd5b6011548110156111a15760116000527f31ecc21a745e3968a04e9570e4425bc18fa8019c68028196b546d1669c200c680190600090565b600435906001600160a01b038216820361116557565b90815180825260208080930193019160005b828110611224575050505090565b835185529381019392810192600101611216565b9060078210156112455752565b634e487b7160e01b600052602160045260246000fd5b9060048210156112455752565b60048110156112455760ff801960165416911617601655565b908060209392818452848401376000828201840152601f01601f1916010190565b610100810190811067ffffffffffffffff8211176112bf57604052565b634e487b7160e01b600052604160045260246000fd5b60c0810190811067ffffffffffffffff8211176112bf57604052565b610120810190811067ffffffffffffffff8211176112bf57604052565b6040810190811067ffffffffffffffff8211176112bf57604052565b90601f8019910116810190811067ffffffffffffffff8211176112bf57604052565b90604051918281549182825260209260208301916000526020600020936000905b828210611385575050506113839250038361132a565b565b85548452600195860195889550938101939091019061136d565b8051156111a15760200190565b80518210156111a15760209160051b010190565b60001981146113cf5760010190565b634e487b7160e01b600052601160045260246000fd5b6000818152600b6020526040902060018101546001600160a01b03163303611cd35760ff600882015416600781101561124557600103611c9c5781600052600f60205260406000206040519061143a826112a2565b60405180602083549182815201908360005260206000209060005b818110611c7d57505050918161147160079360ff95038261132a565b845261147f6001820161134c565b60208501526114906002820161134c565b60408501526003810154606085015260048101546080850152600581015460a0850152600681015460c085015201541615801560e0830152611c4757600a5481516001600160a01b03918216916040916114e99061139f565b5116602482518094819363194b071b60e11b835260048301525afa9081156119e957600090600092611bf4575b5080611be8575b611a9d575060088201805460ff1916600217905580516001600160a01b03906115459061139f565b511680600052600c60205260406000206002810161157081548015611a89575b600384015490611dc2565b4210611a77576001825542905560058101805460ff191690555b6103e86115a261159861273b565b6001840154611e1e565b0490805491821015611a18575b505081516001600160a01b0391506115c69061139f565b5116600052600d60205260406000206007604051916115e4836112a2565b8054835260018101546020840152600281015460408401526003810154606084015260048101546080840152600581015460a0840152600681015460c0840152015460e08201526040514260208201523360601b60408201526034815280606081011067ffffffffffffffff6060830111176112bf578060606103e89201604052602081519101200690511160018060a01b03611681835161139f565b5116608083015181600052600d602052604060002090600682016116a581546113c0565b90558315611a11576103e85b825490816009810204600914821517156113cf57600a91600961ffff6116d993169102611dc2565b04825583156119f5576001820154806009810204600914811517156113cf57600a9160096117079202611dc2565b046001820155600060058201555b426007820155600a54604051639871d38f60e01b81529060a090829060049082906001600160a01b03165afa9081156119e9576000906000926119ac575b5060ff60165416916101f4821080156119a1575b1561194d57506003905b600483101561124557600482101561124557828203611883575b50505060408160017f95551b3009b845863a80a042af7e82531d6102934e5d783a03cf50dba2ba3a39935491015482519182526020820152a21561182a576060907f1d7c8fb40973441cef495f65cf91d100893db8d17b5bd47ad5aa5d5b8346e5de926008600360ff198284015416179101556118096013546113c0565b601355608082820151910151604051916001835260208301526040820152a2565b50600801805460ff19166004179055601454611845906113c0565b6014557f1d7c8fb40973441cef495f65cf91d100893db8d17b5bd47ad5aa5d5b8346e5de6060604051600081526000602082015260006040820152a2565b61189d6118b59161189384611268565b4260175583612790565b916118ab604051809561125b565b602084019061125b565b6060604083015280519081606084015260005b828110611937575050917f8823f56411f8318cc1bdd46973aa666e15348de1119bdd6087f29cd43212355282608081866000837f95551b3009b845863a80a042af7e82531d6102934e5d783a03cf50dba2ba3a3999604099010152601f80199101168101030190a1913861178b565b80602080928401015160808287010152016118c8565b6102bc82108015611996575b156119675750600290611771565b610352821090811561198a575b501561198257600190611771565b600090611771565b61138891501138611974565b506127108111611959565b50614e208111611767565b91505060a0813d60a0116119e1575b816119c860a0938361132a565b8101031261116557604060208201519101519038611753565b3d91506119bb565b6040513d6000823e3d90fd5b5060058101611a0481546113c0565b9055426004820155611715565b60006116b1565b60058101600160ff1982541617905561012c420142116113cf577fc7aa4897bbc745e77abfb56e14a61acc0e22f069c3438ecaef4d71382657496b91604091600461012c4201910155815190815261012c6020820152a23880806115af565b50611a8281546113c0565b815561158a565b60646001850155610e106003850155611565565b90517f650f2fae3c08c91b73268a5cd483d24be3a7d0dac93c5f76dae61f1fee7f4156925060a091906001600160a01b0390611ad89061139f565b51169084600052600b602052604060002090600180851b03169081151580611bd0575b15611b7c576002810180546001600160601b03861b1683179055600801805460ff19166005179055611b2c85611f13565b611b376015546113c0565b601555604051918252602082015260606040820152601f60608201527f4e6574776f726b207175616c6974792062656c6f77207468726573686f6c64006080820152a2565b6008915001600460ff198254161790556040519081526000602082015260606040820152602060608201527f4e6f20616c7465726e6174697665206e6574776f726b20617661696c61626c656080820152a2565b5081600052600e60205260ff60406000205416611afb565b5060ff6009541661151d565b9150506040813d604011611c3f575b81611c106040938361132a565b810103126111655780519081151582036111655760200151906001600160a01b03821682036111655738611516565b3d9150611c03565b60405162461bcd60e51b815260206004820152600e60248201526d526f75746520696e61637469766560901b6044820152606490fd5b82546001600160a01b0316845260209093019260019283019201611455565b60405162461bcd60e51b815260206004820152600f60248201526e526f757465206e6f7420726561647960881b6044820152606490fd5b60405162461bcd60e51b815260206004820152600c60248201526b155b985d5d1a1bdc9a5e995960a21b6044820152606490fd5b60405190611d14826112a2565b600060e0836060815260606020820152606060408201528260608201528260808201528260a08201528260c08201520152565b90604051611d54816112f1565b60ff600882948054845260018060a01b0380600183015416602086015260028201541660408501526003810154606085015260048101546080850152600581015460a0850152600681015460c0850152600781015460e0850152015416906007821015611245576101000152565b919082018092116113cf57565b6000546001600160a01b03163303611de357565b60405163118cdaa760e01b8152336004820152602490fd5b600260015414611e0c576002600155565b604051633ee5aeb560e01b8152600490fd5b818102929181159184041417156113cf57565b60018060a01b0316600052600c6020526040600020604051611e52816112d5565b81548152600182015460208201908152600283015492604083019384526003810154906060840191825260ff6005600483015492836080880152015416151560a08501524210611ed4576103e8611eb5611ec093611eae61273b565b9051611e1e565b049351905190611dc2565b421015611ecd5751101590565b5050600090565b50505050600190565b9091828110611eeb57505050565b600091600052602060002092830192015b828110611f0857505050565b818155600101611efc565b80600052600b6020526004604060002060c060018060a01b03600a54166040519384809263919079bf60e01b82525afa9182156119e9576000926126c6575b506010549293600093845b8181106126435750611f6e85612778565b94611f7c604051968761132a565b808652611f8b601f1991612778565b013660208701376000805b8281106125a057505050611fa8611d07565b93600091600096600754975b8351811015612371576001600160a01b03611fcf82866113ac565b511680600052600d602052896040600020604051611fec816112a2565b60e0600783549384845260018101546020850152600281015460408501526003810154606085015260048101546080850152600581015460a0850152600681015460c08501520154910152106123685761204587611d47565b81600052600d6020526040600020600760405191612062836112a2565b8054835260018101546020840152600281015460408401526003810154606084015260048101546080840152600581015460a0840152600681015460c0840152015460e08201526120b88a606084015185612948565b80158061235f5761233e57683635c9adc5dea00000045b602082015115612354576006546103e881818102048114821517156113cf57602084015190811561233e5760c0920204925b5193015160011c6101f49381850185116113cf5761213261213794612132836121329564e8d4a51000990196611e1e565b611e1e565b0486811161214c575b50506001905b01611fb4565b91985094509361215b86611d47565b90612164611d07565b50604051906121728261130e565b60018252602036818401376040516121898161130e565b60018152602036818301376121c58a6060604051966121a78861130e565b60018852602036818a0137856121bc8861139f565b52015184612948565b6121ce8261139f565b5281600052600d6020526001604060002001546121ea8561139f565b526121f48161139f565b51916121ff8561139f565b5190600052600d60205260406000209283549260405161221e816112a2565b8481526001860154602082015260028601546040820152600386015460608201526004860154608082015260076005870154968760a0840152600681015460c0840152015460e0820152849580159081156122f5575b505060c06103e8910151116122c3575b9560019660405196612295886112a2565b8752602087015260408601526060850152608084015260a083015260c08201528160e0820152979038612140565b93956032870187116113cf576001966103e86032820111156122ed57506103e85b94909650612284565b6032016122e4565b909196506032918183810204831417156113cf5780820286111561233057858282028103116113cf576103e89160c0910286035b9691612274565b50506103e860c06000612329565b634e487b7160e01b600052601260045260246000fd5b60c06103e892612101565b505060006120cf565b50600190612146565b509450949295505050805151151560001461258d5781600052600f602052604060002093815191825167ffffffffffffffff908181116112bf57600160401b948582116112bf576020906123ca838b54818d558c611edd565b0188600052602060002060005b8381106125705750505050600193600188016020840151908151918483116112bf578383116112bf5760209061241284845481865585611edd565b019060005260206000208760005b84811061255d575050505050600288019060408401519081519384116112bf5783116112bf5760209061245884845481865585611edd565b019060005260206000208560005b84811061254a57505050505060086060820151928360038901556124bf60808401519889600482015560a0850151600582015560c08501516006820155600760e0860151151591019060ff801983541691151516179055565b01600160ff19825416179055519060405192606084019060608552835180925260206080860194019160005b81811061252c5750505050907f0bac2b6c6fdb295b50700c61fca773e1d20bfdde8a699116ea21644e22628b649394958392602084015260408301520390a2565b83516001600160a01b031686526020958601959093019282016124eb565b6020845194019381840155018690612466565b6020845194019381840155018890612420565b82516001600160a01b0316818301556020909201916001016123d7565b505090600801600460ff19825416179055565b6125ac8198979861116a565b9054600391821b1c6001600160a01b03166000908152600e602052604090205460ff168061261c575b6125e6575b50600101969596611f96565b8192612615916125f760019461116a565b9054911b1c60a084901b8490031661260f828c6113ac565b526113c0565b91906125da565b5061263d6126298361116a565b905490831b1c6001600160a01b0316611e31565b156125d5565b61264f8197969761116a565b9054600391821b1c6001600160a01b03166000908152600e602052604090205460ff16908161269e575b5061268a575b600101959495611f5d565b956126966001916113c0565b96905061267f565b6126bf91506126ac8361116a565b9054911b1c6001600160a01b0316611e31565b1538612679565b90915060c0813d60c011612733575b816126e260c0938361132a565b810103126111655760a0604051916126f9836112d5565b8051835260208101516020840152604081015160408401526060810151606084015260808101516080840152015160a08201529038611f52565b3d91506126d5565b60ff601654166004811015611245578015612771576001811461276a5760021461276457600090565b61012c90565b506102bc90565b506103e890565b67ffffffffffffffff81116112bf5760051b60200190565b6004811015611245576003810361281657506101f411156127dd576040516127b78161130e565b60168152755375636365737320726174652062656c6f772035302560501b602082015290565b6040516127e98161130e565b601881527f4c6174656e63792061626f7665203230207365636f6e64730000000000000000602082015290565b6002810361289357506102bc111561285a576040516128348161130e565b60168152755375636365737320726174652062656c6f772037302560501b602082015290565b6040516128668161130e565b601881527f4c6174656e63792061626f7665203130207365636f6e64730000000000000000602082015290565b6001146128d457506040516128a78161130e565b601d81527f4e6574776f726b20636f6e646974696f6e73206e6f726d616c697a6564000000602082015290565b610352111561290f576040516128e98161130e565b60168152755375636365737320726174652062656c6f772038352560501b602082015290565b60405161291b8161130e565b601781527f4c6174656e63792061626f76652035207365636f6e6473000000000000000000602082015290565b915160009260018060a01b03168352600d602052604083209260405161296d816112a2565b845481526001850154602082015260e060076002870154968760408501526003810154606085015260048101546080850152600581015460a0850152600681015460c085015201549101526103e89360011c840192838511612a095768056bc75e2d63100000900484018094116129f55750916121326129f192620f424094611e1e565b0490565b634e487b7160e01b81526011600452602490fd5b634e487b7160e01b82526011600452602482fdfea26469706673582212200966742d5cbdcd9a686c7e073800a5f77763842f3a1622a2abd3ce6ae84f760b64736f6c63430008160033",
  "linkReferences": {},
  "deployedLinkReferences": {}
}