{
  "_format": "hh-sol-artifact-1",
  "contractName": "MockStripeOracle",
  "sourceName": "contracts/mocks/MockStripeOracle.sol",
  "abi": [
    {
      "anonymous": false,
      "inputs": [
        {
          "indexed": true,
          "internalType": "bytes32",
          "name": "paymentId",
          "type": "bytes32"
        },
        {
          "indexed": true,
          "internalType": "address",
          "name": "user",
          "type": "address"
        },
        {
          "indexed": false,
          "internalType": "uint256",
          "name": "amount",
          "type": "uint256"
        }
      ],
      "name": "PaymentConfirmed",
      "type": "event"
    },
    {
      "anonymous": false,
      "inputs": [
        {
          "indexed": true,
          "internalType": "bytes32",
          "name": "paymentId",
          "type": "bytes32"
        },
        {
          "indexed": false,
          "internalType": "string",
          "name": "reason",
          "type": "string"
        }
      ],
      "name": "PaymentFailed",
      "type": "event"
    },
    {
      "inputs": [
        {
          "internalType": "bytes32",
          "name": "paymentId",
          "type": "bytes32"
        },
        {
          "internalType": "address",
          "name": "user",
          "type": "address"
        },
        {
          "internalType": "uint256",
          "name": "amount",
          "type": "uint256"
        },
        {
          "internalType": "string",
          "name": "currency",
          "type": "string"
        }
      ],
      "name": "confirmPayment",
      "outputs": [],
      "stateMutability": "nonpayable",
      "type": "function"
    },
    {
      "inputs": [
        {
          "internalType": "bytes32",
          "name": "paymentId",
          "type": "bytes32"
        },
        {
          "internalType": "string",
          "name": "reason",
          "type": "string"
        }
      ],
      "name": "failPayment",
      "outputs": [],
      "stateMutability": "nonpayable",
      "type": "function"
    },
    {
      "inputs": [
        {
          "internalType": "string",
          "name": "currency",
          "type": "string"
        }
      ],
      "name": "getConversionRate",
      "outputs": [
        {
          "internalType": "uint256",
          "name": "",
          "type": "uint256"
        }
      ],
      "stateMutability": "pure",
      "type": "function"
    },
    {
      "inputs": [
        {
          "internalType": "bytes32",
          "name": "paymentId",
          "type": "bytes32"
        }
      ],
      "name": "getPayment",
      "outputs": [
        {
          "components": [
            {
              "internalType": "bytes32",
              "name": "paymentId",
              "type": "bytes32"
            },
            {
              "internalType": "address",
              "name": "user",
              "type": "address"
            },
            {
              "internalType": "uint256",
              "name": "amount",
              "type": "uint256"
            },
            {
              "internalType": "string",
              "name": "currency",
              "type": "string"
            },
            {
              "internalType": "bool",
              "name": "confirmed",
              "type": "bool"
            },
            {
              "internalType": "uint256",
              "name": "timestamp",
              "type": "uint256"
            }
          ],
          "internalType": "struct MockStripeOracle.PaymentData",
          "name": "",
          "type": "tuple"
        }
      ],
      "stateMutability": "view",
      "type": "function"
    },
    {
      "inputs": [
        {
          "internalType": "bytes32",
          "name": "paymentId",
          "type": "bytes32"
        }
      ],
      "name": "isPaymentConfirmed",
      "outputs": [
        {
          "internalType": "bool",
          "name": "",
          "type": "bool"
        }
      ],
      "stateMutability": "view",
      "type": "function"
    },
    {
      "inputs": [
        {
          "internalType": "bytes32",
          "name": "",
          "type": "bytes32"
        }
      ],
      "name": "payments",
      "outputs": [
        {
          "internalType": "bytes32",
          "name": "paymentId",
          "type": "bytes32"
        },
        {
          "internalType": "address",
          "name": "user",
          "type": "address"
        },
        {
          "internalType": "uint256",
          "name": "amount",
          "type": "uint256"
        },
        {
          "internalType": "string",
          "name": "currency",
          "type": "string"
        },
        {
          "internalType": "bool",
          "name": "confirmed",
          "type": "bool"
        },
        {
          "internalType": "uint256",
          "name": "timestamp",
          "type": "uint256"
        }
      ],
      "stateMutability": "view",
      "type": "function"
    },
    {
      "inputs": [
        {
          "internalType": "address",
          "name": "",
          "type": "address"
        }
      ],
      "name": "userTotalDeposits",
      "outputs": [
        {
          "internalType": "uint256",
          "name": "",
          "type": "uint256"
        }
      ],
      "stateMutability": "view",
      "type": "function"
    }
  ],
  "bytecode": "0x6080806040523461001657610885908161001c8239f35b600080fdfe60406080815260048036101561001457600080fd5b600091823560e01c80630716326d146105095780631fac531b146104c45780632c375a2c14610496578063619ab9a7146104015780639295953f146103c7578063da1548d1146101615763e66eefc81461006d57600080fd5b3461015d576020928360031936011261015a5780829160a08351610090816105c4565b8281528288820152828582015260608082015282608082015201528335815280855220906101478151936100c3856105c4565b8354855260018401546001600160a01b03908116878701908152600286015485880190815290949091600560ff6100fc60038a01610634565b9560608b01968752890154169760808a01981515895201549560a089019687528251998a99818b5251908a01525116908701525160608601525160c0608086015260e08501906106d9565b9151151560a08401525160c08301520390f35b80fd5b8280fd5b508290346103c35760803660031901126103c3576024356001600160a01b03818116928535928490036103bf576044359167ffffffffffffffff6064358181116103bb576101e794939291866101bb8a9336908d01610719565b9390948651946101ca866105c4565b8386528b60209a8b988989019283528a8901938c8552369161074c565b92606088019384528960808901958060019b8c895260a08c0199428b5282525220975188558888019151166bffffffffffffffffffffffff60a01b8254161790555160028601556003850190519384519081116103a7578c8a61024a845461058a565b91601f831161035f575b91505050898d601f83116001146102fc5790600596836102f1575b5050600019600383901b1c191690871b1790555b8b84019051151560ff801983541691161790555191015585875283528086208054908382018092116102de577f39fd390557813740ae66de7cbe4bfd65a0d32b878de7ab7091c33b52ee8697d995969798505551908152a380f35b634e487b7160e01b885260118952602488fd5b015190508f8061026f565b889291601f1983168583528d80842093905b82821061034857505097836005991061032f575b505050811b019055610283565b015160001960f88460031b161c191690558f8080610322565b838b015185558c969094019392830192018e61030e565b84815220601f830160051c8101918c841061039d575b601f0160051c019088908f5b8382106103925790508c9150610254565b81550188908f610381565b9091508190610375565b50634e487b7160e01b8c5260418d5260248cfd5b8780fd5b8480fd5b5080fd5b50903461015d57602036600319011261015d57356001600160a01b0381169081900361015d57828291602094526001845220549051908152f35b503461015d578060031936011261015d578135916024359167ffffffffffffffff83116103bf576104567fa5dbb3c1a0284032c9304b92018a5ffa68ae5977aceb1728bd12082986e014b99336908401610719565b92858752866020528287200160ff19815416905582825193849260208452816020850152848401378181018301879052601f01601f19168101030190a280f35b50903461015d57602036600319011261015d57808260209460ff933581528086522001541690519015158152f35b50823461015a57602036600319011261015a5782359067ffffffffffffffff821161015a57506104fc60209361050292369101610719565b90610793565b9051908152f35b50823461015a57602036600319011261015a57819083358152806020522080549161057960018060a01b03600184015416946002840154600560ff61055060038801610634565b93870154169501549380519788978852602088015286015260c0606086015260c08501906106d9565b911515608084015260a08301520390f35b90600182811c921680156105ba575b60208310146105a457565b634e487b7160e01b600052602260045260246000fd5b91607f1691610599565b60c0810190811067ffffffffffffffff8211176105e057604052565b634e487b7160e01b600052604160045260246000fd5b6040810190811067ffffffffffffffff8211176105e057604052565b90601f8019910116810190811067ffffffffffffffff8211176105e057604052565b906040519182600082546106478161058a565b908184526020946001916001811690816000146106b75750600114610678575b50505061067692500383610612565b565b600090815285812095935091905b81831061069f5750506106769350820101388080610667565b85548884018501529485019487945091830191610686565b9250505061067694925060ff191682840152151560051b820101388080610667565b919082519283825260005b848110610705575050826000602080949584010152601f8019910116010190565b6020818301810151848301820152016106e4565b9181601f840112156107475782359167ffffffffffffffff8311610747576020838186019501011161074757565b600080fd5b92919267ffffffffffffffff82116105e05760405191610776601f8201601f191660200184610612565b829481845281830111610747578281602093846000960137010152565b907fc4ae21aac0c6549d71dd96035b7e0bdb6c79ebdba8891b666115bc976d16a29e6107c036838561074c565b60208151910120621554d160ea1b60206040516107dc816105f6565b60038152015214610847577ffff16d60be267153303bbfa66e593fb8d06e24ea5ef24b6acca5224c2ca6b9079161081491369161074c565b602081519101206222aaa960e91b6020604051610830816105f6565b600381520152146108415761271090565b612a3090565b50506127109056fea2646970667358221220cabbd2bf98ba179adc8d2e945c5cfecc69d8e50d4287a2877d2d2809af9f595164736f6c63430008160033",
  "linkReferences": {},
  "deployedLinkReferences": {}
}