{
  "_format": "hh-sol-artifact-1",
  "contractName": "BasicCAES",
  "sourceName": "contracts/BasicCAES.sol",
  "abi": [
    {
      "inputs": [
        {
          "internalType": "address",
          "name": "owner",
          "type": "address"
        }
      ],
      "stateMutability": "nonpayable",
      "type": "constructor"
    },
    {
      "inputs": [
        {
          "internalType": "address",
          "name": "spender",
          "type": "address"
        },
        {
          "internalType": "uint256",
          "name": "allowance",
          "type": "uint256"
        },
        {
          "internalType": "uint256",
          "name": "needed",
          "type": "uint256"
        }
      ],
      "name": "ERC20InsufficientAllowance",
      "type": "error"
    },
    {
      "inputs": [
        {
          "internalType": "address",
          "name": "sender",
          "type": "address"
        },
        {
          "internalType": "uint256",
          "name": "balance",
          "type": "uint256"
        },
        {
          "internalType": "uint256",
          "name": "needed",
          "type": "uint256"
        }
      ],
      "name": "ERC20InsufficientBalance",
      "type": "error"
    },
    {
      "inputs": [
        {
          "internalType": "address",
          "name": "approver",
          "type": "address"
        }
      ],
      "name": "ERC20InvalidApprover",
      "type": "error"
    },
    {
      "inputs": [
        {
          "internalType": "address",
          "name": "receiver",
          "type": "address"
        }
      ],
      "name": "ERC20InvalidReceiver",
      "type": "error"
    },
    {
      "inputs": [
        {
          "internalType": "address",
          "name": "sender",
          "type": "address"
        }
      ],
      "name": "ERC20InvalidSender",
      "type": "error"
    },
    {
      "inputs": [
        {
          "internalType": "address",
          "name": "spender",
          "type": "address"
        }
      ],
      "name": "ERC20InvalidSpender",
      "type": "error"
    },
    {
      "inputs": [
        {
          "internalType": "address",
          "name": "owner",
          "type": "address"
        }
      ],
      "name": "OwnableInvalidOwner",
      "type": "error"
    },
    {
      "inputs": [
        {
          "internalType": "address",
          "name": "account",
          "type": "address"
        }
      ],
      "name": "OwnableUnauthorizedAccount",
      "type": "error"
    },
    {
      "anonymous": false,
      "inputs": [
        {
          "indexed": true,
          "internalType": "address",
          "name": "owner",
          "type": "address"
        },
        {
          "indexed": true,
          "internalType": "address",
          "name": "spender",
          "type": "address"
        },
        {
          "indexed": false,
          "internalType": "uint256",
          "name": "value",
          "type": "uint256"
        }
      ],
      "name": "Approval",
      "type": "event"
    },
    {
      "anonymous": false,
      "inputs": [
        {
          "indexed": true,
          "internalType": "address",
          "name": "migrationContract",
          "type": "address"
        }
      ],
      "name": "MigrationContractSet",
      "type": "event"
    },
    {
      "anonymous": false,
      "inputs": [
        {
          "indexed": false,
          "internalType": "bool",
          "name": "enabled",
          "type": "bool"
        }
      ],
      "name": "MigrationEnabled",
      "type": "event"
    },
    {
      "anonymous": false,
      "inputs": [
        {
          "indexed": true,
          "internalType": "address",
          "name": "previousOwner",
          "type": "address"
        },
        {
          "indexed": true,
          "internalType": "address",
          "name": "newOwner",
          "type": "address"
        }
      ],
      "name": "OwnershipTransferred",
      "type": "event"
    },
    {
      "anonymous": false,
      "inputs": [
        {
          "indexed": true,
          "internalType": "address",
          "name": "from",
          "type": "address"
        },
        {
          "indexed": true,
          "internalType": "address",
          "name": "to",
          "type": "address"
        },
        {
          "indexed": false,
          "internalType": "uint256",
          "name": "value",
          "type": "uint256"
        }
      ],
      "name": "Transfer",
      "type": "event"
    },
    {
      "inputs": [
        {
          "internalType": "address",
          "name": "owner",
          "type": "address"
        },
        {
          "internalType": "address",
          "name": "spender",
          "type": "address"
        }
      ],
      "name": "allowance",
      "outputs": [
        {
          "internalType": "uint256",
          "name": "",
          "type": "uint256"
        }
      ],
      "stateMutability": "view",
      "type": "function"
    },
    {
      "inputs": [
        {
          "internalType": "address",
          "name": "spender",
          "type": "address"
        },
        {
          "internalType": "uint256",
          "name": "value",
          "type": "uint256"
        }
      ],
      "name": "approve",
      "outputs": [
        {
          "internalType": "bool",
          "name": "",
          "type": "bool"
        }
      ],
      "stateMutability": "nonpayable",
      "type": "function"
    },
    {
      "inputs": [
        {
          "internalType": "address",
          "name": "account",
          "type": "address"
        }
      ],
      "name": "balanceOf",
      "outputs": [
        {
          "internalType": "uint256",
          "name": "",
          "type": "uint256"
        }
      ],
      "stateMutability": "view",
      "type": "function"
    },
    {
      "inputs": [],
      "name": "decimals",
      "outputs": [
        {
          "internalType": "uint8",
          "name": "",
          "type": "uint8"
        }
      ],
      "stateMutability": "view",
      "type": "function"
    },
    {
      "inputs": [],
      "name": "migrationContract",
      "outputs": [
        {
          "internalType": "address",
          "name": "",
          "type": "address"
        }
      ],
      "stateMutability": "view",
      "type": "function"
    },
    {
      "inputs": [],
      "name": "migrationEnabled",
      "outputs": [
        {
          "internalType": "bool",
          "name": "",
          "type": "bool"
        }
      ],
      "stateMutability": "view",
      "type": "function"
    },
    {
      "inputs": [
        {
          "internalType": "address",
          "name": "to",
          "type": "address"
        },
        {
          "internalType": "uint256",
          "name": "amount",
          "type": "uint256"
        }
      ],
      "name": "migrationMint",
      "outputs": [],
      "stateMutability": "nonpayable",
      "type": "function"
    },
    {
      "inputs": [],
      "name": "name",
      "outputs": [
        {
          "internalType": "string",
          "name": "",
          "type": "string"
        }
      ],
      "stateMutability": "view",
      "type": "function"
    },
    {
      "inputs": [],
      "name": "owner",
      "outputs": [
        {
          "internalType": "address",
          "name": "",
          "type": "address"
        }
      ],
      "stateMutability": "view",
      "type": "function"
    },
    {
      "inputs": [
        {
          "internalType": "address",
          "name": "to",
          "type": "address"
        },
        {
          "internalType": "uint256",
          "name": "amount",
          "type": "uint256"
        }
      ],
      "name": "ownerMint",
      "outputs": [],
      "stateMutability": "nonpayable",
      "type": "function"
    },
    {
      "inputs": [],
      "name": "renounceOwnership",
      "outputs": [],
      "stateMutability": "nonpayable",
      "type": "function"
    },
    {
      "inputs": [
        {
          "internalType": "address",
          "name": "_migrationContract",
          "type": "address"
        }
      ],
      "name": "setMigrationContract",
      "outputs": [],
      "stateMutability": "nonpayable",
      "type": "function"
    },
    {
      "inputs": [
        {
          "internalType": "bool",
          "name": "_enabled",
          "type": "bool"
        }
      ],
      "name": "setMigrationEnabled",
      "outputs": [],
      "stateMutability": "nonpayable",
      "type": "function"
    },
    {
      "inputs": [
        {
          "internalType": "address",
          "name": "minter",
          "type": "address"
        },
        {
          "internalType": "bool",
          "name": "canMint",
          "type": "bool"
        }
      ],
      "name": "setMinter",
      "outputs": [],
      "stateMutability": "nonpayable",
      "type": "function"
    },
    {
      "inputs": [],
      "name": "symbol",
      "outputs": [
        {
          "internalType": "string",
          "name": "",
          "type": "string"
        }
      ],
      "stateMutability": "view",
      "type": "function"
    },
    {
      "inputs": [],
      "name": "totalSupply",
      "outputs": [
        {
          "internalType": "uint256",
          "name": "",
          "type": "uint256"
        }
      ],
      "stateMutability": "view",
      "type": "function"
    },
    {
      "inputs": [
        {
          "internalType": "address",
          "name": "to",
          "type": "address"
        },
        {
          "internalType": "uint256",
          "name": "value",
          "type": "uint256"
        }
      ],
      "name": "transfer",
      "outputs": [
        {
          "internalType": "bool",
          "name": "",
          "type": "bool"
        }
      ],
      "stateMutability": "nonpayable",
      "type": "function"
    },
    {
      "inputs": [
        {
          "internalType": "address",
          "name": "from",
          "type": "address"
        },
        {
          "internalType": "address",
          "name": "to",
          "type": "address"
        },
        {
          "internalType": "uint256",
          "name": "value",
          "type": "uint256"
        }
      ],
      "name": "transferFrom",
      "outputs": [
        {
          "internalType": "bool",
          "name": "",
          "type": "bool"
        }
      ],
      "stateMutability": "nonpayable",
      "type": "function"
    },
    {
      "inputs": [
        {
          "internalType": "address",
          "name": "newOwner",
          "type": "address"
        }
      ],
      "name": "transferOwnership",
      "outputs": [],
      "stateMutability": "nonpayable",
      "type": "function"
    }
  ],
  "bytecode": "0x60803462000398576001600160401b03601f601f1962000f9b3881900383810183168601858111878210176200039d578692829160405283396020958691810103126200039857516001600160a01b03948582169491859003620003985762000067620003b3565b600681526521a0a2a9a0a960d11b8282015262000083620003b3565b94600495868152634341455360e01b848201528251938585116200029e576003948554946001958681811c911680156200038d575b84821014620003785790818684931162000322575b508390868311600114620002bf57600092620002b3575b505060001982881b1c191690851b1785555b81519586116200029e5787548481811c9116801562000293575b828210146200027e5783811162000233575b5080928611600114620001c7575084955090849291600095620001bb575b50501b92600019911b1c19161781555b8115620001a35750600580546001600160a01b03198116831790915560405192167f8be0079c531659141344cd1fd0a4f28419497f9722a3daafe3b4186f6b6457e0600080a3610bc79081620003d48239f35b602490600060405191631e4fbdf760e01b8352820152fd5b01519350388062000140565b939295859081168860005285600020956000905b89838310620002185750505010620001fd575b50505050811b01815562000150565b01519060f884600019921b161c1916905538808080620001ee565b858701518955909701969485019488935090810190620001db565b88600052816000208480890160051c820192848a1062000274575b0160051c019085905b8281106200026757505062000122565b6000815501859062000257565b925081926200024e565b602289634e487b7160e01b6000525260246000fd5b90607f169062000110565b604188634e487b7160e01b6000525260246000fd5b015190503880620000e4565b908a8894169189600052856000209260005b878282106200030b5750508411620002f2575b505050811b018555620000f6565b0151600019838a1b60f8161c19169055388080620002e4565b8385015186558b97909501949384019301620002d1565b90915087600052836000208680850160051c8201928686106200036e575b918991869594930160051c01915b8281106200035e575050620000cd565b600081558594508991016200034e565b9250819262000340565b60228b634e487b7160e01b6000525260246000fd5b90607f1690620000b8565b600080fd5b634e487b7160e01b600052604160045260246000fd5b60408051919082016001600160401b038111838210176200039d5760405256fe6080604081815260048036101561001557600080fd5b600092833560e01c90816306fdde031461089f57508063095ea7b3146107f65780630fee1a20146107cd57806318160ddd146107ae57806323b872dd146106bb578063313ce5671461069f57806335b944bf14610678578063484b973c1461064b578063521c27f2146105df57806370a08231146105a8578063715018a61461054b57806388b79cec1461049b5780638da5cb5b1461047257806395d89b4114610350578063a9059cbb1461031f578063cf456ae71461029b578063dd62ed3e1461024e578063f2fde38b146101bf5763fdb359b4146100f457600080fd5b346101bb57816003193601126101bb5761010c6109df565b6006549092906001600160a01b03811633036101785760a01c60ff161561013d578361013a60243585610b1a565b80f35b906020606492519162461bcd60e51b83528201526015602482015274135a59dc985d1a5bdb881b9bdd08195b98589b1959605a1b6044820152fd5b815162461bcd60e51b8152602081850152601760248201527f4f6e6c79206d6967726174696f6e20636f6e74726163740000000000000000006044820152606490fd5b8280fd5b50346101bb5760203660031901126101bb576101d96109df565b906101e2610aee565b6001600160a01b03918216928315610238575050600554826bffffffffffffffffffffffff60a01b821617600555167f8be0079c531659141344cd1fd0a4f28419497f9722a3daafe3b4186f6b6457e08380a380f35b51631e4fbdf760e01b8152908101849052602490fd5b5050346102975780600319360112610297578060209261026c6109df565b6102746109fa565b6001600160a01b0391821683526001865283832091168252845220549051908152f35b5080fd5b5050346102975736600319011261031c576102b46109df565b60243580151581036101bb576102c8610aee565b156102f557600680546001600160a81b0319166001600160a01b0390921691909117600160a01b17905580f35b600654906001600160a01b0380831691161461030f575080f35b60ff60a01b191660065580f35b80fd5b50503461029757806003193601126102975760209061034961033f6109df565b6024359033610a10565b5160018152f35b5091903461029757816003193601126102975780519082845460018160011c9060018316928315610468575b60209384841081146104555783885290811561043957506001146103e4575b505050829003601f01601f191682019267ffffffffffffffff8411838510176103d157508291826103cd925282610996565b0390f35b634e487b7160e01b815260418552602490fd5b8787529192508591837f8a35acfbc15ff81a39ae7d344fd709f28e8600b4aa8c65c6b64bfe7fe36bd19b5b838510610425575050505083010138808061039b565b80548886018301529301928490820161040f565b60ff1916878501525050151560051b840101905038808061039b565b634e487b7160e01b895260228a52602489fd5b91607f169161037c565b50503461029757816003193601126102975760055490516001600160a01b039091168152602090f35b50346101bb5760203660031901126101bb576104b56109df565b6104bd610aee565b6001600160a01b0316918215610508575050600680546001600160a01b031916821790557f97a236cf3b4e32c9fb4e33b5edcb52a89e62617e6f0832e3af28a0c3ecb3028f8280a280f35b906020606492519162461bcd60e51b8352820152601a60248201527f496e76616c6964206d6967726174696f6e20636f6e74726163740000000000006044820152fd5b833461031c578060031936011261031c57610564610aee565b600580546001600160a01b0319811690915581906001600160a01b03167f8be0079c531659141344cd1fd0a4f28419497f9722a3daafe3b4186f6b6457e08280a380f35b5050346102975760203660031901126102975760209181906001600160a01b036105d06109df565b16815280845220549051908152f35b50346101bb5760203660031901126101bb5735908115158092036101bb577facaad8bf56d04ed7b9796e58f655f311d78d29ac1b825ee1a55dd8da338321609160209161062a610aee565b6006805460ff60a01b191660a084901b60ff60a01b1617905551908152a180f35b5050346102975736600319011261031c5761013a6106676109df565b61066f610aee565b60243590610b1a565b50503461029757816003193601126102975760209060ff60065460a01c1690519015158152f35b5050346102975781600319360112610297576020905160128152f35b50823461031c57606036600319011261031c576106d66109df565b6106de6109fa565b916044359360018060a01b03831680835260016020528683203384526020528683205491600019831061071a575b602088610349898989610a10565b86831061078257811561076b573315610754575082526001602090815286832033845281529186902090859003905582906103498761070c565b8751634a1406b160e11b8152908101849052602490fd5b875163e602df0560e01b8152908101849052602490fd5b8751637dc7a0d960e11b8152339181019182526020820193909352604081018790528291506060010390fd5b5050346102975781600319360112610297576020906002549051908152f35b50503461029757816003193601126102975760065490516001600160a01b039091168152602090f35b50346101bb57816003193601126101bb5761080f6109df565b602435903315610888576001600160a01b031691821561087157508083602095338152600187528181208582528752205582519081527f8c5be1e5ebec7d5bd14f71427d1e84f3dd0314c0f7b2291e5b200ac8c7c3b925843392a35160018152f35b8351634a1406b160e11b8152908101859052602490fd5b835163e602df0560e01b8152808401869052602490fd5b84915083346101bb57826003193601126101bb578260035460018160011c906001831692831561098c575b602093848410811461045557838852908115610970575060011461091a57505050829003601f01601f191682019267ffffffffffffffff8411838510176103d157508291826103cd925282610996565b600387529192508591837fc2575a0e9e593c00f959f8c92f12db2869c3395a3b0502d05e2516446f71f85b5b83851061095c575050505083010185808061039b565b805488860183015293019284908201610946565b60ff1916878501525050151560051b840101905085808061039b565b91607f16916108ca565b6020808252825181830181905290939260005b8281106109cb57505060409293506000838284010152601f8019910116010190565b8181018601518482016040015285016109a9565b600435906001600160a01b03821682036109f557565b600080fd5b602435906001600160a01b03821682036109f557565b916001600160a01b03808416928315610ad55716928315610abc5760009083825281602052604082205490838210610a8a575091604082827fddf252ad1be2c89b69c2b068fc378daa952ba7f163c4a11628f55a4df523b3ef958760209652828652038282205586815220818154019055604051908152a3565b60405163391434e360e21b81526001600160a01b03919091166004820152602481019190915260448101839052606490fd5b60405163ec442f0560e01b815260006004820152602490fd5b604051634b637e8f60e11b815260006004820152602490fd5b6005546001600160a01b03163303610b0257565b60405163118cdaa760e01b8152336004820152602490fd5b6001600160a01b0316908115610abc5760025490808201809211610b7b5760207fddf252ad1be2c89b69c2b068fc378daa952ba7f163c4a11628f55a4df523b3ef9160009360025584845283825260408420818154019055604051908152a3565b634e487b7160e01b600052601160045260246000fdfea264697066735822122003337164dbf2d4e99134401feedeaab315a969b65d1153c744eb4a75d475365f64736f6c63430008160033",
  "linkReferences": {},
  "deployedLinkReferences": {}
}